:020000041000EA
:1000000000B5324B212058609868022188439860DF
:10001000D860186158612E4B002199600421596104
:100020000121F02299502B49196001219960352056
:1000300000F044F80222904214D00621196600F024
:1000400034F8196E01211966002018661A6600F04E
:100050002CF8196E196E196E052000F02FF8012189
:100060000842F9D1002199601B49196000215960AB
:100070001A491B48016001219960EB211966A021F2
:10008000196600F012F800219960164914480160C1
:100090000121996001BC002800D000471248134993
:1000A000086003C880F30888084703B5996A0420EC
:1000B0000142FBD001200142F8D103BD02B5186610
:1000C0001866FFF7F2FF186E186E02BD00000240BE
:1000D000000000180000070000035F00212200005C
:1000E000F4000018222000A00001001008ED00E03C
:1000F000000000000000000000000000070B8FD58A
:10010000980F0020690E00109D320010550E00104F
:1001100000000000000000000000000000000000DF
:10012000000000000000000000000000450F00106B
:100130000000000000000000D50E0010291A001079
:1001400095100010951000109510001095100010DB
:1001500095100010951000109510001095100010CB
:1001600095100010951000109510001095100010BB
:1001700095100010951000109510001095100010AB
:10018000951000109510001095100010951000109B
:10019000951000109510001095100010951000108B
:0801A0009510001095100010ED
:1001A80002B4714649084900095C49008E4402BC02
:1001B8007047C046002934D00123002210B4884279
:1001C8002CD301242407A14204D2814202D209017E
:1001D8001B01F8E7E400A14204D2814202D249009F
:1001E8005B00F8E7884201D3401A1A434C08A04242
:1001F80002D3001B5C0822438C08A04202D3001BD8
:100208009C082243CC08A04202D3001BDC082243EE
:10021800002803D01B0901D00909E3E7100010BC2E
:10022800704701B5002000F00BF802BD0029F8D096
:1002380003B5FFF7C1FF0EBC4243891A1847C046F1
:100248007047C046D0400B00D1409C46203AD3406E
:100258001843524263469340184370471C210123B8
:100268001B04984201D3000C10391B0A984201D391
:10027800000A08391B09984201D30009043902A26F
:10028800105C40187047C0460403020201010101D6
:100298000000000000000000002B11D1002A0FD13F
:1002A800002900D1002802D00021C943080007B462
:1002B800024802A14018029003BDC04685FFFFFF17
:1002C80003B4684601B5029800F0C4FB019B9E4642
:1002D80002B00CBC7047C0464A02F8B5430244005D
:1002E800C50F500A84464800240E000E5F0AC90F45
:1002F8009B099209261A8D4200D09EE0002E42DD0D
:100308008021C90400281ED1002A0AD0661E012CAB
:1003180005D19B1801340B4246D1013C01E0FF2C6A
:1003280014D15A0704D00F221A40042A00D00433EB
:100338005A0100D42EE101340026FF2C19D09D4E1D
:10034800DB081E4015E0FF2CEBD00A431B2E01DD15
:100358000133E6E72020801B11008240F140501E47
:1003680082410A439B185A01DBD501340026FF2C31
:100378001AD1FF23E005DB057602760A18403043E0
:10038800ED072843F8BD002E2ED08026011BF60469
:10039800002C14D1002B00D1F3E04C1E01290AD106
:1003A8009B1802243342B8D0012283491A405B08C3
:1003B8000B401343B5E7FF2906D11300AEE0FF2831
:1003C80000D1E0E00C0033431B2C02DD531C040079
:1003D800A7E719002026E140341BA3405C1EA34177
:1003E8000B4304009B18BEE7FE20611C01421ED18E
:1003F800002C0DD1002B00D1C7E0002A00D190E7D6
:100408009B185A0100D48CE76C4A13400C0088E70B
:10041800002BD2D0FF24002A00D182E78023DB03FF
:100428009F4202D39C4500D26746FB0076E00C0051
:10043800FF299ED09B185B0873E7002E25DD002856
:100448001CD1002A00D16CE7661E012C06D19B1A2C
:100458005A0100D465E79B019E0975E0FF2C00D185
:100468005FE701211B2E07DC2020801B1100824042
:10047800F140501E824111435B1AE9E7FF2C00D17D
:100488004FE78021C9040A43EBE7002E25D0051B5E
:10049800002C0DD1002B08D06E1E012D03D10D00AC
:1004A800D31A0134D4E7FF2D08D113002C0021E022
:1004B800FF286CD080242E00E404234301241B2E43
:1004C80007DC2025AD1B1C00AB40F4405D1EAB4192
:1004D8001C43131B0D000400BAE7FE26601C3042C3
:1004E8002DD1002C14D1002B06D125002600131E77
:1004F80000D13EE70D0014E7002A00D111E79E1A4B
:10050800D31A7001F6D4331E00D00AE7350030E75D
:10051800002B05D1002A49D013000D00FF2400E765
:10052800FF24002A00D1FCE68023DB039F4200D28F
:100538007BE79C4500D378E767460D0075E79E1A70
:10054800700115D50D00D61A3000FFF787FE33006D
:1005580005388340844210DC2022001B0130121A27
:1005680019009340C1405A1E934100240B43D8E61A
:10057800002EE9D135003400FBE6104A241A134056
:10058800CFE6130042E7130021E71300C9E6130082
:100598000400AFE7DE08FF2C00D0EAE6002E00D109
:1005A800E7E68023DB03FF241E43E2E680261500EE
:1005B800F603F6E7FFFF7F1FFFFFFF7DFFFFFFFB4F
:1005C800F0B5C30F85B0440245000F1C640A2D0E18
:1005D800039302930AD0FF2D3BD08023E400DB0471
:1005E8001C4300237F3D019500930EE001230194F5
:1005F8000093002C09D02000FFF730FE431F9C40D9
:1006080076235B421B1A019300957D027E006D0ADA
:10061800360EFF0F002E23D0FF2E2ED08023ED00A4
:10062800DB041D4333007F3B002201980399C31A62
:10063800009879408000104301380E2823D8FFF72E
:10064800AFFD4D9973999299734D4D9273616161A4
:100658005300022301950093002CD6D00133C3E741
:100668002B000122002DE0D02800FFF7F7FD431FE3
:100678009D4076235B421B1AD6E733000222002DE9
:10068800D3D00132D1E764016D01AC4228D31A20DE
:100698000122641B0126270052006400002F01DBA1
:1006A800A54201D8641B324301380028F3D1601EEB
:1006B8008441144318007F30002838DD620704D0D5
:1006C8000F222240042A00D00434220103D58033AB
:1006D80018002B4A1440E508FE281DDD00250FE010
:1006E8001B200022013BD5E78023DB031C4203D0FB
:1006F8001D4201D12C00029780250299ED03254364
:10070800FF2009E00399009A022AE7D0032A2FD094
:1007180000252800012ACDD16D026D0AC0052843A5
:10072800C907084305B0F0BD2C003900ECE70122E9
:100738000025121A28001B2AEEDC9E3325009C4057
:10074800D540631E9C4125436B0704D00F232B40E3
:10075800042B00D0043580232800DB0418401D42F8
:100768000BD1ED08D8E780240023E4030293C3E704
:100778000291C1E700252800CEE700250120CBE73C
:10078800FFFFFFF7F0B5C30F85B0470244000291A1
:100798007F0A240E03930AD0FF2C71D080227F3C5D
:1007A80026000023FF00D204174301930CE0012325
:1007B8003E1E019308D03800FFF750FD7626431FF0
:1007C8009F407642361A0194029B5C025D00DB0F63
:1007D800640A2D0E02935AD0FF2D64D0802328007E
:1007E800E400DB041C437F3800230299039A4A4043
:1007F800811901988C46850001311D430A2D00DDC1
:1008080078E0022D55DC013D012D63D9250CA4B2F9
:1008180026003B0CB8B246435C4368436B4300195F
:100828001F00330C1B189C4202D9802040023F183D
:100838001804B6B28619B401601E84411B0CB60EAA
:10084800DB1934439B011C431B0168D50123600855
:100858001C40044308007F30002862DD630704D091
:100868000F232340042B00D00434230103D5803107
:1008780008003E4B1C40E508FE2833DD00254CE00F
:10088800022326000193002F9ED001338DE720001C
:100898000123002CA9D0FFF7E1FC431F9C407623DD
:1008A8005B42181AA0E728000223002C9DD00133D0
:1008B8009BE70120A840A6250600ED002E4028420F
:1008C8001DD19025AD00284247D1B93DFF3D2842B2
:1008D8009CD0029A022BD1D0032B42D000252800AD
:1008E800012BB7D16D026D0AC0052843D20710430A
:1008F80005B0F0BD039A0F2D04D00B2DE9D03C00B4
:10090800019BE7E78023DB031F4203D01C4201D190
:100918002700029A8025ED033D43FF20E2E7614668
:1009280098E7012300251B1A28001B2BDADC9E31CF
:1009380025008C40DD40631E9C4125436B0704D095
:100948000F232B40042B00D0043580232800DB0420
:1009580018401D4207D1ED08C4E780273200FF0385
:10096800D8E72700D6E700250120BBE7FFFFFFF700
:1009780041024300C20F490A00201B0E7E2B03DDF3
:100988009D2B02DD084BD0187047802000040843D7
:10099800952B05DD963B9840002AF5D04042F3E7B9
:1009A8009621CB1AD840F7E7FFFFFF7F002370B5E9
:1009B8000400984209D0FFF751FC9E231B1A962B7E
:1009C80008DC082829D0083884406402D805640A5D
:1009D800204370BD992B1BDD020021001B32914082
:1009E8000A00511E8A410521091ACC4014432200ED
:1009F8000B4D2A40610704D00F212140042900D063
:100A08000432510102D59F232A401B1AD408DCE77F
:100A1800421F0528EBD09440E9E79623D5E7C04666
:100A2800FFFFFFFB9140030090409C46203A934013
:100A3800194352426346D3401943704710B5002901
:100A480003D1FFF70BFC203002E00800FFF706FC9B
:100A580010BDC046F0B506000F0015001C0085B09B
:100A68008B4263D801D1824260D821002800FFF769
:100A7800E5FF390000903000FFF7E0FF009B210000
:100A88001B1A1A0028000393FFF7CCFF009001916E
:100A9800B94245D801D1B04242D8009B019C0120FF
:100AA8000021039AF61AA741FFF7BCFF04000D00C6
:100AB800039B002B2BD0019B009ADB07500818439F
:100AC800019B5908039B9C46B9422CD801D1B042DE
:100AD80029D832003B00121A8B41012692185B413B
:100AE8000027B6185F4101235B429C446346002BF4
:100AF800EAD130003900039AFFF7A4FB039AA4193E
:100B08007D4106000F00FFF78DFF241A8D410A9BD7
:100B1800002B01D01E605F602000290005B0F0BDE9
:100B280000240025C4E7B6197F41DCE7002400252E
:100B3800EDE7000010B501F047F8034B010018007D
:100B480002F08EFB10BDC04600400010F7B54D4CBA
:100B5800200002F041FF002805D14B48216802F02F
:100B68007FFB0020FEBD80214848490202F071FA4F
:100B7800011E474819D1A5682369AF69002F19D00C
:100B880020261B68052133405A1E9341B8225B4238
:100B98005B0ED2045B069B183E4A20001340A0223D
:100BA8005204B847011E08D03B480523226802F0CA
:100BB80057FBD6E758214942F6E73849384B8E604B
:100BC8004B60EB69002B02D0012220009847354882
:100BD8000522216802F044FB334D286800280AD01A
:100BE80002F0FAFE2B68061E26D131002F481A683B
:100BF80002F036FB2E602E4802F032FB2B68002BE9
:100C0800AFD001262769A36820005B6801A998472F
:100C1800031E2AD1019B3A6853405B0933403100D7
:100C28002A7928689140026912680A4224D0002B68
:100C380024D083681B6923E0002BDCD080212800A6
:100C4800890202F006FA2B79011E07D02A68194892
:100C5800126802F005FB00232B60CCE729681A0014
:100C68001548096802F0FCFAC5E70028D7DA002120
:100C78000A2001F0A5FCC5E7002BDAD08368DB6801
:100C88009847F4E7003D001016400010BC3E0010E5
:100C98003C400010400000066540001000020020A3
:100CA8003D0B00109B40001000000020B7400010D2
:100CB80037410010EA4000101E41001010B5024BE9
:100CC8001B68984710BDC04608000020014B1860FB
:100CD8007047C0460800002030B585B004000D00FC
:100CE80010220021684602F025FF6A46022393700D
:100CF800044B2A0021006846019301F041FF05B02A
:100D080030BDC046C50C0010F7B504000D001E002C
:100D1800019201F09BFC030002F0A6FF054F320090
:100D28003B5001992800A04702F09EFF385800F078
:100D3800B1F8C0460800000030BFFDE7F7B50A4B20
:100D48000A4D0600EF18CC1B2A0020000849019321
:100D580002F0E7FE60190021019A02F0EBFE38006C
:100D6800083C74660830FEBD040000000000000066
:100D7800983E0010054B5A699B689A4205D080231B
:100D8800034A5B0551680B435360704764020020B7
:100D980000ED00E070B5224B0C005B6888B0DB0505
:100DA800DB0D62B6BFF36F8F0025160E2900FF2EEC
:100DB80009D1F33E1640082E05D00100013512076F
:100DC80001D5210000250024032B14D18B69154A75
:100DD800934202D3144A934206D3144A00249342FE
:100DE80009D3134A934206D2023B1A88114B0024B6
:100DF8009A4200D10C682022684602F092FE079BB6
:100E0800002D0AD0DA0502D10B4A1343079369462D
:100E1800200002F031FA08B070BD5B0A5B02F5E70A
:100E280000ED00E0A80100107C3C0010000000204C
:100E38000000002002DF0000FF0100000821024A34
:100E480053698B435361704700ED00E0EFF308806E
:100E5800EFF3098101B57246FFF79CFF01BDC0465B
:100E6800094880F3088872B608480949401880F391
:100E78000988EFF314800221084380F31488BFF334
:100E88006F8F02F013FA0000980F002098020020DC
:100E98000008000010B50A4B9B6883420DD1EFF3A0
:100EA8000583002B09D08022064B520559680A4356
:100EB8005A605A6A04490A405A6201F0CDFB10BDD3
:100EC8006402002000ED00E0FF7FFFFF15498A68FB
:100ED80015481044EFF3098CF0C043464C4655467C
:100EE8005E466746F8C072B6104F114E4A698A606E
:100EF8003E60104C141920680F4C2060906E00233F
:100F08009366002800D162B6074C10191030F8C853
:100F18009846A146AA46B346BC462438F0C88CF386
:100F280009887047640200203000000004ED00E0EA
:100F380000000008640000000C0200200420714634
:100F4800014202D0EFF3098001D1EFF308808169F3
:100F5800023909780229FFD001B5724602F094F9E6
:100F680001BDC04643B2000605D41F221A40012322
:100F78009340014A1360704700E100E030B5FF2557
:100F880003220B00290040B20240D20091409B018D
:100F98002B40C943934000280ADBC0240A4A800832
:100FA80080008018A40002590A401343035130BD41
:100FB8000F2210400838054A800880008018C2694E
:100FC80011401943C161F2E700E100E000ED00E0E3
:100FD800FF22044B9343044A9360BFF34F8FBFF340
:100FE8006F8F70470001001000ED00E010B5203A47
:100FF8001360029B01245360039B06499360049B82
:10100800A143D36080235B04D3610023916102650F
:10101800836610BD110D001070B50B4B150098605C
:10102800426E0A4B0E001A602C1C86F309880020B9
:10103800034B9847201C002100220023014C204725
:10104800CB320010110D0010640200200C020020A9
:101058001022014B1A61704700ED00E0F0B5C02482
:1010680000220326FF25A40010002F003040C000F6
:101078008740054993089B005B1819590132B94309
:1010880019511A2AF0D1F0BD00E100E010B5EFF3D4
:101098000583054A103BDB00D118496898588847F2
:1010A800FFF768FE10BDC0462C3D001010B5024B7E
:1010B8001B689847002010BD10020020034B044A0B
:1010C8001860022391780B43937070471002002038
:1010D8000C00002010B5044802F0C2F862B6BFF355
:1010E8006F8F0423181C02DF49410010072310B535
:1010F8000449054A99430548521A02F059F8002054
:1011080010BDC0469F0F00200020042014020020BC
:1011180049B24368102916DC0A290BD00B2910D0D4
:101128000C224A431B689B18802292019B1880223C
:10113800120103E09B68054A9B182D2200201A60C3
:101148007047DB68F7E716204042F9E704300000F3
:1011580049B24368102916DC0A290BD00B2910D094
:101168000C224A431B689B18C02292019B188022BC
:10117800120103E09B68054A9B182D2200201A6083
:101188007047DB68F7E716204042F9E704200000C3
:10119800802310B5084A5B041360084A94691C420E
:1011A80002D01620404210BD01609269100018401C
:1011B8001A42F8D0F5E7C04618300640000006404D
:1011C800030010B508000B2907D8FEF7E9FF090945
:1011D80009091220282C2C2C33330120404210BD41
:1011E8001A680C234B439B58134ADB051B0FD05638
:1011F800F5E7124A0E201368116803220C00144008
:101208001142ECD00E4A0238022CEED1E7E70D4A23
:101218000420136812689207E1D00B4AE5E70B4BEC
:101228000B4A1B68E1E70C234B430A4A9B181B68CF
:10123800094ADAE70C20D2E7684100103080004004
:10124800654100103C8000405F410010488000402C
:10125800584100100080004052410010F8B50600C7
:101268000C00756821002800376902F03FF8002853
:1012780000D16DE00E2C00D96AE02000FEF790FF47
:101288000808080808082A08080830306A62660052
:10129800210028002F68FFF793FF01003000FFF7B7
:1012A800DDFF0C236343FB185E68051C5868C0B259
:1012B800FFF77CFB2849FFF783F9041C300AFFF786
:1012C80075FB011C201CFFF707F8011C281CFFF701
:1012D80077F9F8BD06212800FFF772FF0400C0E780
:1012E8000A2C2DD1AF6821002800FFF769FF010003
:1012F8003000FFF7B3FF061CB868FFF757FB311C37
:10130800FFF740FA061C3F203D68FC682840FFF7BD
:101318004DFB011C301CFFF753F90725061C200C58
:101328002840FFF743FB011C301CFFF749F9FF6811
:10133800041C380B2840FFF739FB011C201CC6E7AA
:10134800EF68D0E73868FFF731FBC2E77868FAE75B
:101358000020BEE70148BCE700007F43001B374B75
:10136800F0B544688FB0A36822220393E3685F490D
:1013780005A804932568276902F0D3FB5C4B5D4AF6
:101388001A605D4B5D4A13601E005D4A1268964301
:10139800FAD10C21300000F001FDAE6700F0EAFC44
:1013A8000321584BDA6B8A43DA635A6C012AFCD161
:1013B80003211A6B8A431A639A6B012AFCD1E269EA
:1013C800514B03985A43636A0093236AA16900F05A
:1013D8006BFCE26A4C4B04985A43636B0093A16A16
:1013E800236B00F061FC112105A801F0C9FF73000F
:1013F80005AA9956C8B2092867D90136112EF6D11F
:10140800C0239B01EA1880231B0113603F4A380060
:10141800AA1813603E4A1430AA1813603D4AAD1842
:101428002B602300AA25D83319682D012943FFF71B
:10143800AFFE002855DB2300DC331B683649380033
:101448001943FFF7A5FE00284BDB2300E0331B6898
:10145800002B48D029001F2B00D85919380010300C
:10146800FFF796FE00283CDB2600E43631682B4D5A
:1014780089B22943381DFFF78BFE002831DB38007D
:1014880031680830090C2943FFF782FE002828DB61
:10149800234B1A4A13601A4B1B68DB43DB01DD0937
:1014A800002BF8D12900606902AA02F059F8002837
:1014B80007DB029B2A001979186802F064F80028F3
:1014C80001DA831C0DD100200BE0090161180B6CB7
:1014D80000934B6CCA6B896B02F04FFA00288CD1D1
:1014E80016380FB0F0BD0F49B8E7C046983E001057
:1014F80000E00040BFCDFBFEFE7F3C0000F0004056
:1015080008C0004000800040001BB7000C300000FD
:10151800183000002430000000B0FA000000969651
:10152800FFFFFF01A10A000010B5084802F054FAB5
:10153800002808D0064C2000FFF7C0FD2000FFF768
:10154800C5FB002010BD13204042FBE7E03C001023
:101558005D15001070B50400074D0A2804D1AB686A
:101568000D2128005B689847AB6828005B68E1B2EA
:101578009847200070BDC046E03C0010D0231B06F1
:101588001B685A4253412F225B429343064A9B18D9
:101598001A001068002804D10432D11A0C29F8D98D
:1015A80070470120FCE7C04650410140F7B5036988
:1015B80007000193D0231B061C68002563425C4189
:1015C8002F2364429C43174BE4180722EB08083387
:1015D8009B001B592A409200D3400F22134203D18B
:1015E80001351E2DF1D1F7BD0F21280000F07EFC3A
:1015F800019B59680029F3D00123AB400E68009382
:101608000029EDD08B68009A00981A40034202D056
:1016180038004B689847331E00D0336831001E00ED
:10162800EEE7C04630410140F8B50D00141E0669CA
:1016380010D11100280000F0D1FB284BAD00EB18A9
:101648001A6880235340C0221340254AAD182B60E6
:101658000020F8BD01275209210928003A403940E5
:1016680000F0BCFB0521280000F0A0FB802321002E
:101678005B0219401C421AD0D023AF401B069F6260
:10168800A303E5D501200300F268AB40A10719D5F3
:101698001A43F260D0223169120665070BD5194347
:1016A8003161A40C936104420AD05362D0E7280048
:1016B80000F04AFCE4E799433161E40C5361F2E736
:1016C8009362C5E79A43F260D0221206210301D53E
:1016D8005361EAE76403E8D59361E6E704C0014093
:1016E80004D00140436803491A68936B0B40936325
:1016F8007047C0467FF8FFFFF0B5436887B0049392
:1017080003690291059203931B7A0500002B00D010
:101718009FE0002A0BD00121049B1A68136B8B43AE
:10172800136343680F311A68D36A8B43D362EE227E
:101738006B681B68DC6A9443029A1279012A06D006
:10174800022A16D0002A04D0862040426AE00222EB
:101758001443029A5279012A03D0032AF4D105329C
:101768001443029A90790328EED8FEF719FD06046F
:10177800181A0622ECE720221443029AD279002A8A
:1017880011D0012AE0D18022196BD2010A431A63D1
:101798006B681A688023116B1B020B430CE0402214
:1017A800EAE76022E8E71A6B2B490A401A636B687C
:1017B8002A491A68136B0B401363039B4026764231
:1017C800F717D868029B810E1A688001002312015E
:1017D800FEF762FD00900191009A019BB6185F41E7
:1017E800002F34D11E498E4231D8019B6968980672
:1017F800009B09689B0903434B623F216B68009A71
:101808001B680A409A62BFF35F8F6B6802991B6876
:101818000398DA6ADA626B6808221B68DC6202F0F5
:1018280080F93800059B002B0FD0049B1B7F002BF1
:1018380005D16B681A681023D16A0B43D3626B68B1
:101848001A680123116B0B43136307B0F0BD162010
:101858007BE786204042F8E7FFBFFFFFFF7FFFFFDF
:1018680080FF3F00F7B5456804000669A8680028AE
:1018780061D12869002867D1377A002F32D1390021
:10188800686801AA01F06CFE00285CDB019B3A0045
:101898001979186801F077FE002854D16B6A002B7B
:1018A80000D09847012163681A68136B8B43136350
:1018B80063680F311A68D36A8B43D3622B6A002B93
:1018C80053D1002231002000FFF716FF63681A6821
:1018D800102353632A7F002A04D162681268D16AF0
:1018E8000B43D362002263681B689A636368264AC5
:1018F8001B685A64337A002B13D1626812689364A8
:10190800BFF36F8F022163681A68136B8B431363ED
:1019180063681A68C023116B9B000B431363BFF302
:101928006F8FAB69200098470123327A3374002AFD
:1019380021D0002007E0E9688368DB68002B20D00D
:101948009847002895D0FEBD836869691B68002BFD
:1019580000D0984732002869696983680C32DB68CF
:10196800002B00D188E7984786E72000F168984760
:101978000028A6D0E7E762681268116B0B4313636F
:10198800D7E758204042DEE7FF07000070B5802502
:101998001049114B8C681B680E6810488A686D02E4
:1019A800002C08D1002A11D11A002E4209D1006852
:1019B8001818801A70BD002A0AD02E4201D1A242FE
:1019C800F5D90468E41804600968F0E71C00F4E736
:1019D8001A00F2E710E000E038020020340200208C
:1019E8000020094A136A1B021B0A1362074B084AA4
:1019F8001A60084B084A1860084B5A60072298601A
:101A080019680A431A60704700ED00E038020020A8
:101A1800D430000034020020D330000010E000E091
:101A2800F8B50024FFF7B2FF0F4E230031680F4DC1
:101A38000A002868696880185941286069600C4D57
:101A480034600C492E686F68801BFEF7B3FB0949A8
:101A5800230041430A0092197B412A606B6001F020
:101A680007F8FFF787F9F8BD340200208800002046
:101A780080000020D4300000F0B53B4B3B4D87B0D0
:101A880000295FD0421C08D101212A688A432A60B4
:101A9800FF2212061A6007B0F0BD1B6803930023EB
:101AA8000293012853DCEFF31083059372B6FFF716
:101AB8006DFF00221100AB6804932D4B1E685F6810
:101AC80036184F413000390018605960294B00968C
:101AD80001971A60284B1C68009B1B1B93423DDB37
:101AE800264F0298264A78438018C0183900FEF716
:101AF80061FB009B7843E41A80232018DB0098429E
:101B080000D218001F4B984200D91800164B1849EC
:101B180018600138AB6868600020A860049AD41A7D
:101B28009A421ED2039D621903000C684D6812196F
:101B38006B410A604B60059B002BACD162B6BFF3CA
:101B48006F8FA8E71B680393431CA8D10E480F4B5F
:101B5800984200DD1800431E0293A4E78020C000CD
:101B6800D4E72200E0E7C0463802002010E000E099
:101B7800880000203402002080000020D4300000BB
:101B8800D330000084C6FF003D0500003E0500007C
:101B980070B5EFF3108572B6084A094B14681B68D4
:101BA800E41AFFF7F3FE0019002D02D162B6BFF365
:101BB8006F8F0449FEF7FEFA70BDC046880000200A
:101BC80080000020D430000070B5EFF3108572B6A5
:101BD800054B1C68FFF7DAFE2018002D02D162B60B
:101BE800BFF36F8F70BDC04688000020F7B50C2486
:101BF800444301932A4B0092E4186368089A05004D
:101C08000E00934200D26260C0232F1F9B01FFB2D7
:101C1800E318012F1BD8012E19D103221A60A368DB
:101C28003342FCD0009B22685B015340E022134002
:101C380080225201A21813600321236873400B40CD
:101C480013600123B340A2681342FCD01BE080223A
:101C580012011A60134BAA00D158002907D05869FD
:101C6800FEF7A8FA431C032058430338FDD2009B13
:101C780022685B015340E022134080225201A218DF
:101C88001360012FD8D9802380229B01E318120109
:101C98001A60089B019A6360024BAD00EA50F7BDD9
:101CA800008000403C020020F8B5170004002948D5
:101CB8000D001E00FEF77EFA274B0100FA18274B8D
:101CC8009A4201D901F00AFB3800FEF773FA0200C4
:101CD8009823103A5B009A42F4D8731E062BF1D869
:101CE800069B013B062BEDD8069B32041E03236896
:101CF8001643002B0FDA3F2223681340AB420AD168
:101D0800A3681B051B0D834205D1EE22E368D202AE
:101D18001340B3421CD0124B1249E21853425A41A5
:101D280001230C329340104A1360104A13601F00BD
:101D38000A6897433A1EFAD10D4B2132E318256001
:101D4800A0601A602268002AFCDA0822E6601A609D
:101D5800F8BDC046001BB70080E84BD380F8A93215
:101D68000040FDBF08C0004000E0004000F0004017
:101D780004300000AA22064B12011A602F220549DE
:101D8800DA60054A11605A68002AFCDA7047C046D2
:101D98000040024000B0FA00006002408023024A7E
:101DA8009B000B43D36270470080054010B5084B79
:101DB8008200D3181C6840236340C0242340054C8C
:101DC800C00012191360044BC018416010BDC04612
:101DD80004C0014004D0014000400140064B80008F
:101DE800C3181B68C90092000A435A400C231A40C2
:101DF800024BC0180260704704C0014004D0014083
:101E0800064BC000C3181B6809075940C0239B052F
:101E18001940034BC01801607047C0460440014098
:101E280004500140064BC000C3181B680904594000
:101E3800C0239B021940034BC01801607047C0467D
:101E48000440014004500140064BC000C3181B6801
:101E580009025940C0239B001940034BC018016078
:101E68007047C0460440014004500140064BC00082
:101E7800C3181B6809035940C0239B011940034B31
:101E8800C01801607047C04604400140045001403A
:101E980002238000002903D0024A8018036070479B
:101EA800014AFAE704E0014004F00140054B8000D4
:101EB800C3181B68594001231940034BC01801601F
:101EC8007047C04604C0014004D00140054B800063
:101ED800C3181B680901594030231940024BC01828
:101EE8000160704704C0014004D001400722C308C4
:101EF800104080008140024A3C339B009950704753
:101F080000400140F8B5D0231B061C680500634259
:101F18005C412F2364429C430A4B0F00E4181600CF
:101F2800FFF7E4FF07232B40ED089B00AD009F401F
:101F380064198023002E00D1C0239B01E418276078
:101F4800F8BDC0463041014040238000002903D03D
:101F5800024A801803607047014AFAE704E001402A
:101F680004F0014070B5EFF3108572B6064B9C681B
:101F780001F043FD002D02D162B6BFF36F8F200040
:101F8800FEF788FF70BDC04664020020F8B501273F
:101F98000D4E83009D59013084003359AB4200D85F
:101FA800F8BD2868002807D0084B984206D3084B8C
:101FB800984203D2036898470435EEE7037F3B4213
:101FC800FAD101F01DFDF7E7E83F0010203D0010B1
:101FD8002C3D0010012270B5234B032086B01A70E7
:101FE800FFF7D4FF00F0C4FD0420FFF7CFFF1F4C1C
:101FF80026001F4DAC420ED300F01CFAAE4220D38F
:1020080000F028FAFEF7A2FD01211A4A137B8B4340
:10201800137306B070BD636A0593236A0493E3697A
:102028000393A36902936369019323690093E368A7
:10203800A2686168206800F0B9F823685C653034EC
:10204800D7E7B26AF36A511C01D1591C05D01100B7
:102058003068194303D100F0D9FA3036CEE7064983
:10206800183000F075FCF8E790020020FC3D0010E5
:10207800FC3D001000010020CB3A001010B5034AC7
:1020880003480021121A01F0D3FC10BD940200206D
:102098008000002070B57026012504004643010227
:1020A800114880220918002086B004950E35039542
:1020B800053565430D4B0590029001900C48F618C4
:1020C8002D180C4B30000095520000F06FF80422D8
:1020D800737B2C74934373730134074BE402E41845
:1020E800EE606C6006B070BD980A00209000002079
:1020F80064020020493A001098020020F0B5002040
:1021080087B0FFF743FF204B83F308881F49204B14
:102118000A6A00251A40C0231B0413430B62FEF70A
:102128008DFEFEF795FF1B4800F07AF801F053FC8E
:102138000120FFF72BFF0220FFF728FF00F0BAF974
:10214800154C164B80225C61154B164E05930123E6
:1021580015490493D2003300200003950295019598
:10216800009500F023F804220700637B20009343C6
:10217800637301F07FFC2800FFF78CFF3200390001
:102188002000FEF749FFC046980A002000ED00E055
:10219800FFFF00FF70010020000100206402002002
:1021A800C1410010DD1F0010980B0020F0B587B06A
:1021B8000593030058338365C365109B0727037392
:1021C800042300250732BA434373D2190F9BBA433D
:1021D80083738B180E0085601900C5738561C5610E
:1021E80004000493FEF7AAFD049BC019B8431F1A04
:1021F8000E9B3A0002930D9B310001930C9B20002B
:102208000093059BFEF7F2FE044B65659B68AB42A5
:1022180000D01B6E3800236607B0F0BD64020020B2
:102228000223FF33838100230366014B98607047C4
:10223800640200200B21084A49429368D9669866CF
:10224800802306495B05486803434B6062B6BFF3C9
:102258006F8F9368D86E70476402002000ED00E02D
:102268000D2370B5C356427B002B38DBD30636D11D
:1022780080235B4213431B4C4373A3691A49E269E9
:102288008B4207D1016042601060E06111E09A4220
:10229800F8D01B68002BF5D00E250E2645579E5703
:1022A800B542F4D0AE42F2DD5A6803604260106075
:1022B8005860A5698D4201D0002D00D1E568A3685A
:1022C8005A7BD20605D1DA897F2A02D9AA69002A5F
:1022D80006D0AB4202D0280000F082FA656170BDDA
:1022E8006361FCE7640200207C0200200D2270B5C7
:1022F80082560500437B002A04DA7F221340437389
:1023080001F0A5FB0D4E0E4AB469B368944201D0A2
:10231800002C00D1F468AB4208D05A7BD20605D114
:10232800DA897F2A02D9A269002A05D0A34202D0FD
:10233800200000F055FA2300736170BD640200208C
:102348007C0200200D2270B582560400437B002ACF
:1023580004DA7F221340437301F079FB8023627B08
:102368005B4213431B4D6373AB691B49EA698B429C
:1023780007D1216062601460EC6111E09A42F8D0E4
:102388001B68002BF5D00E200E2620569E57B04213
:10239800F4D08642F2DD5A682360626014605C60A3
:1023A800AE69AB688E4201D0002E00D1EE68A34220
:1023B80008D05A7BD20605D1DA897F2A02D9B269B8
:1023C800002A05D0B34202D0300000F009FA3300E9
:1023D8006B6170BD640200207C02002010B50029EA
:1023E8000AD1EFF30580002807D1064B9A685B698C
:1023F8009A4202D0FFF71EFF10BD62B6BFF36F8F7F
:10240800FAE7C0466402002010B500280AD1EFF3AD
:102418000580002807D1064B5A699B689A4202D06A
:10242800FFF708FF10BD62B6BFF36F8FFAE7C0462B
:1024380064020020EFF3108172B6054B9A68D37BD3
:10244800013BD373002902D162B6BFF36F8F704787
:102458006402002070B5EFF3108672B6134DAB68B6
:10246800DA7B0132DA73AC69114A944201D0002C4C
:1024780000D1EC685A7BD20605D1DA897F2A02D9C5
:10248800A269002A05D0A34202D0200000F0A8F9D2
:1024980023006B61002E02D162B6BFF36F8FEFF39A
:1024A800108072B6FFF7B0FF70BDC046640200200E
:1024B8007C020020024B034A9A61DA617047C046E9
:1024C800640200207C02002070B5EFF3108572B61C
:1024D8001C4CA168E3690A68CB1A581E83414968F5
:1024E8005B420A6051601340E169A268002B05D184
:1024F800154B516013600A60E2610CE00E200E2655
:1025080010569E57B04218D0864216DD596813609F
:1025180051600A605A60A6690B4B9E4201D0002E9A
:1025280000D1E668A3689E4202D0300000F058F956
:1025380028006661FFF77EFE70BD8B42D8D01B680D
:10254800D4E7C046640200207C020020F8B50300EE
:1025580007000C000B4303D1FFF7B6FF0020F8BDBE
:10256800EFF3108672B6134D134BA8681860FFF787
:10257800BDFEA86823003A001049183000F0E8F9B9
:102588000423AA680400517B30000B435373FFF700
:1025980051FEAB689A6A002AE0D18022DB6A1206F3
:1025A8009342DBD101F0B9FA201AC343DB17184074
:1025B800D5E7C0466402002084020020CB3A001010
:1025C80070B504000D00FFF7C1FF03002000621C76
:1025D80001D1013513D01800D9170922002380181A
:1025E8005941002901D109280AD904290AD802D158
:1025F80003000B3306D80A220023FDF74DFE70BDF9
:102608000800FCE70048FAE7FFFFFF7F70B5040009
:10261800EFF3108572B60426437B33420DD0183091
:1026280001F055FA637B2000B3436373FFF718FE8C
:1026380029000548FFF7D2FE70BD002DFCD162B617
:10264800BFF36F8FF8E7C04691020020014B9868EE
:102658007047C04664020020F0B5037B85B00400D3
:102668000393EFF31083019372B6019B029308233F
:10267800427B1A4207D0019B002B02D162B6BFF3FE
:102688006F8F05B0F0BD1900114348B2002854DB24
:102698006173A368002B02D0200001F0E0F920004C
:1026A8002600183001F013FA5836A56DAE4201D055
:1026B800002D4AD12F4F0025BB689C4204D1EFF36F
:1026C80005856A1E9541EDB2BE692B4A964201D036
:1026D800002E00D1FE68B34202D0300000F080F82E
:1026E8007E61002D02D02548FFF79AFDBB689C4209
:1026F80038D1EFF30583002B34D1237BDB070FD5CB
:10270800019B002B02D162B6BFF36F8F62B6BFF395
:102718006F8F0423181C02DFEFF3108372B6029345
:102728000298FFF787FD039BDB07AAD562B6BFF3C4
:102738006F8F0423181C02DFA3E77F210A4013438D
:102748002000637301F083F9A3E7280001F087F9FB
:102758002800183001F0BBF900232800EB66FFF7CA
:102768007FFDA2E7019B002BDDD162B6BFF36F8F1F
:10277800D9E7C046640200207C02002070010020D6
:102788000121044B044AC01A044BC0104343D154DE
:102798007047C046E001002091020020ABAAAAAA17
:1027A800C289030000207F2A11D80A4A106800282D
:1027B8000DD00E21084A595612680020914206DBB6
:1027C8005A7BD20603D10548181A431E98410123A3
:1027D8001840704768000020880200209000002000
:1027E80070B518240C4B05001E7C0C4B7443E41880
:1027F800200001F06CF90022094B28009A55FFF7D8
:10280800CFFF002807D0074B20001A680649013A75
:10281800D31700F09DF870BD64020020E00100208D
:1028280091020020680000208927001070B5EFF39E
:10283800108572B6104A114B94681868A04207D1E7
:10284800FFF7CEFF002D02D162B6BFF36F8F70BDC8
:1028580000211960127C0A4B9B5C8B42F2D020004D
:10286800FFF79EFF0028EDD0637BDB0602D1200036
:10287800FFF768FD2000E3E76402002084020020DF
:10288800910200200648074A10B5121A064901F0BD
:10289800D3F8064A06480749121A01F0CDF810BDC8
:1028A800000000207C0000201442001000000020DE
:1028B8000000002014420010024B1868984200D112
:1028C800002070476C00002070B50600FFF7F4FF89
:1028D800002810D0026943693400F517121BAB4178
:1028E800002B08DC03D1802109068A4203D2D84391
:1028F800C017104070BD0148FCE7C046FFFFFF7FCE
:10290800002010B5034B1B68834201D1FFF740F943
:1029180010BDC0468C02002030B500280ED00B4BED
:102928005B6898420AD00168002907D00A694B6998
:102938000469456912196B410A614B610368426871
:1029480013605A6000230360436030BD6C000020B0
:10295800F0B5040015001E0085B0531C02D1731C8D
:1029680000D17CE0A160EFF31083039372B6002ED0
:1029780026DBFFF7C5FF00210090012040197141B7
:10298800009AD31712184B413649226163610868CF
:10299800496812184B411E00150001230293FFF7E6
:1029A8008BFF0700304B9C465B680193002F1DD1BD
:1029B80063462360019B63601C6063465C6027E09C
:1029C800284B1868596802225242D317121A8B41B1
:1029D800521BB3411100002B04DC01D1002A01D1A4
:1029E80001210023636121610023D7E738697969F0
:1029F80022696369994202DC28D1904226D9801A5B
:102A080099417B6838617961636027601C607C60EC
:102A1800FFF752FF84420FD1144B1B68002B0BD1D8
:102A2800029B002B02D1FFF76BFF00900098FFF785
:102A38004BFF0021FFF720F8039B002B02D162B661
:102A4800BFF36F8F2800310005B0F0BD121A8B411B
:102A580022616361019B9F42AAD03F68A6E70025D7
:102A68000026EFE7F80100206C0000208C0200200F
:102A7800F0B587B0EFF3108372B601932F4B18604F
:102A8800FFF71AFF2E4F04003A687B6802920393FF
:102A98002A4B9C461D6800280FD042690669EB172F
:102AA8009A4202DC24D1AE4222D919002269636914
:102AB8002800121A8B4122616361029803992A0047
:102AC800EB1712184B4100243A607B6063462000E4
:102AD8001C60FFF7F9FE2100FEF7CEFF019BA34221
:102AE80002D162B6BFF36F8FFFF7A0FE07B0F0BD4B
:102AF800F31704960593049A059B02980399801886
:102B08005941002300220E4D2261636128606960EB
:102B18002000FFF701FF019B002B02D162B6BFF333
:102B28006F8F2000A3689847EFF3108372B6034AAB
:102B3800019313689B1B1360A2E7C0468C02002018
:102B4800F801002010B5EFF3108472B6FFF7D8FE35
:102B580002000649C3170868496880185941002CC3
:102B680002D162B6BFF36F8F10BDC046F8010020D6
:102B780010B5024800F074FB10BDC046C6410010F5
:102B8800F0B5436893B003900893837815009B07CA
:102B980000D4F8E0002301930E78002E6AD0252E89
:102BA8000DD04B1C0993019B013301930399089B9A
:102BB800F0B29847002800DADFE00999ECE74E7890
:102BC8008B1C0993252EEED0002304211C00099AA2
:102BD8000293079309921F2C2ED830002038102812
:102BE8000AD8FDF7DDFA1D0909270909091E09098F
:102BF800091B0925090918003300303B092B29D97D
:102C08002A2E32D108CD600622D4002B29DB2020C1
:102C18000793044305E001231C4302E002231C43FD
:102C28000C43099B01321E78002ED3D109922DE066
:102C38000823F1E71023EFE77F2C1ED83300303B41
:102C4800092BDDD8600605D50A20029E7043C318FB
:102C58000293E6E70A20079E7043C31807932023D0
:102C6800DAE75B4207932823D6E72E2E05D14023C7
:102C78001C42D1D0019813B0F0BD6C2E2DD027D8AE
:102C8800682E31D06A2E32D04C2E30D0029B002BC9
:102C980003DA40239C4300230293202333431A0082
:102CA800653A022A01D9612B24D10722EB1D9343EF
:102CB80008331D00AB4F0292240753D5019A029B9B
:102CC80016009C18B4424FD1079B029A9E1A82E1C3
:102CD800742EA6D07A2EA4D0D8E780231C429BD08D
:102CE80080208000044397E780235B00F6E7A02359
:102CF8009B0091E730006338122800D9E3E0FDF724
:102D08004FFA0A46E2E2E2E246E2E2E2E2E2F3DD1A
:102D1800E2E211E2AD0004CD0CAB1A7001230CAF56
:102D28000293C9E780CD002F00D18F4F0299630627
:102D380001D401214942380000F004FF0290BBE7AA
:102D480020200399089B9847002816DB013C029B2A
:102D5800A342F5D3079A019B944663441B1B019336
:102D68000794ABE7079CF2E7019B0399FB1A985D70
:102D7800089B984701360028A4DA039B9A78042315
:102D88001343039A937001235B42019372E723066E
:102D98003FD5A30537D50722073595432F000CCF1C
:102DA80004920593102325009D43059B002B3ADAD6
:102DB8000499059A00244B42944104930594802376
:102DC800DB001D43ADB20CAC0A2304980599220020
:102DD80000F0C3FE041B6B0665D501232A009A4345
:102DE8001300029AA24200DCA4E0002E00D19CE06D
:102DF8001022290011400B91154200D09CE0029A44
:102E08001D0006921EE02F0008CF0493DB170593E0
:102E1800C8E72F0008CFE205F7D5A20501D55BB2B8
:102E2800F3E71BB2F1E7049B059A1343CBD1630682
:102E3800C9D5029B002BC6D111339C43029B2500A8
:102E48001C0006932A00494B1A400B921D4277D06A
:102E5800069B0133069300230B9371E010239C43D8
:102E6800063B9C46802322001A4006921C4242D010
:102E780021008133FF3319401C4239D00722EB1D52
:102E880093431F0003CB083703000B4346D12500AB
:102E980016339D43630644D5029B002B41D117335B
:102EA8009C432500029C10232A001A400B921D42C5
:102EB80056D0631C002E42D022003FE01023782613
:102EC8009C461C43CEE7782B04D110229B1B1A4347
:102ED8009446C7E725200399089B9847002800DAFD
:102EE8004BE7019B023360E6082300269C46B9E7BE
:102EF8002F0001CFC8E72F008022210008CF520001
:102F0800180011401442BFD08022210092001140C5
:102F180098B21442B8D00699D8B2B5E706239C43B4
:102F280025000CAC6346220052E711239D43029B07
:102F3800069387E71D00B6E71D00029A931C0693C7
:102F48002B072AD4EB0709D5079B069A02949342CC
:102F580004DD9B1A1B190293079B0693069B10E03E
:102F680006946FE70A4200100342001006040000AE
:102F780020200399089B9847002800DAFDE60A9B61
:102F880001330A930A9A079B9342F1DC069A019B44
:102F98009B1A0A9A9B18019306920B9B002B25D02B
:102FA80030200399089B9847002800DAE5E6019B42
:102FB800002E12D101330193019E029B019A9B18A6
:102FC8009B1BA34220DC2500002D25D13D00079B3B
:102FD800069AA4199E1A019431E002330193F0B2C3
:102FE8000399089B98470028E6DAC6E6174B1D4266
:102FF800E2D02020AB0700D50B306D0500D52D2081
:10300800019B01330193EBE730200399089B0136BC
:1030180098470028D1DAB0E60CAB013DE85C03998B
:10302800089B98470028CFDAA7E6019B20200133A8
:1030380001930399089B9847002800DA9DE6019AB6
:10304800A3199B1A002BF0DCB7E5C0460604000064
:103058007047F8B503000C00DA8800681979224334
:1030680001273E0083688E409C4603691D682C003A
:10307800B4433A4201D034002C431C6063461B68B9
:103088009847F8BD8023C900411880681B02984200
:1030980002D39200505870475200505AFBE710B5BF
:1030A8008024C900411880682402A04202D39200FB
:1030B800535010BD52005352FBE710B50122FFF7E1
:1030C800E1FF400810BD10B58024C9004118806890
:1030D80001232402A04208D34868002A02D00343EF
:1030E8004B6010BD98434860FBE74888002A02D02F
:1030F80003434B80F5E798434880F2E710B5530047
:103108000122FFF7CCFF10BD8022042310B5120264
:10311800904200D3DB180833DB080131C81AFDF7E9
:103128009DF81F23181A10BDF8B50D000400866815
:10313800FFF7C3FF802301001B029E4201D3012831
:1031480019D03000FFF7E0FF8300E3181E69002E56
:1031580012D101218140E26820000A43E26029007F
:1031680002221D612B00FFF79AFF2B000322290082
:103178002000FFF794FFF8BD022231002000FFF77E
:1031880081FF07000300022229002000FFF787FFC4
:103198003300032229002000FFF781FF2B000322C0
:1031A80039002000FFF77BFF2B0002223100DFE708
:1031B800F8B580230824DB029A4200D2043C072396
:1031C8000027141BCD1D0C199D439C43641BE40868
:1031D800056021002000AC60EF60FFF795FF431DFC
:1031E8009B00DE1D3A00F608013001DB103B1A0097
:1031F80028000021103000F09DFC3200280000213A
:10320800FFF77CFF002328001A001900FFF747FF8B
:10321800A71B280001220021FFF755FF3A003100C3
:103228002800FFF76BFF3300310028000022FFF76A
:1032380036FF280021000022FFF760FF3B0028002E
:1032480021000022FFF72BFF280001222100FFF7B1
:103258003AFF31002800FFF767FFF8BD00207047EC
:103268000FB407B504A901C90191FDF735FD03B0F5
:1032780008BC04B01847704710B5012801D1EFF316
:103288000583FEF76FFE10BD10B501000068FFF75B
:10329800F3FF10BD10B5FDF74FFDFDF76BFD10BD39
:1032A80010B500210120FFF7E7FF10BD10B5FDF7AD
:1032B8008FFEFEF7E3FEFFF7E5FAFDF7CFFEFEF718
:1032C8001DFF002802D162B6BFF36F8F7047BFF3AE
:1032D8004F8F30BF62B6BFF36F8F704710B5FDF7E1
:1032E800F9FE10B5FDF7E2FE002010BD0300012035
:1032F8000A1FD2B200B582420DD90E290AD8080099
:10330800FCF74EFF0A0A0A0A08080A0A0A0A1111F3
:103318001D212100002000BD1A680C234B4398583A
:103328000005C00FF7E70A2907D19B6858682923C9
:10333800184043425841C0B2EDE7DB68F6E75B68E6
:103348005868C004EDE70120E5E749B2030010B56D
:10335800EA20102904DC5868FFF7C8FF0130C0B222
:1033680010BD49B210B51400102906DCFDF776FF30
:10337800FDF7FEFA2060002010BD16204042FBE752
:103388000123F0B50700002587B05B420391019047
:103398000293039B9D4224D22E006C003C1901230A
:1033A800029AE35693420FD16B00F818FB5602229B
:1033B80004930123C3562100059300F0B2FB049B3C
:1033C80001352370059B6370039B01360234B342B9
:1033D800E5D1019B1B785BB20293019B02330193F9
:1033E800D7E707B0F0BDD0231B065B6800200B6051
:1033F80070470A0010B503691000D96888430100B6
:10340800D02000064161DC681969214011408162C1
:10341800D9681B69114099434162002010BD0A0018
:1034280010B503691000D96888430100D020000650
:103438008161DC681969214011404162D9681B69C2
:10344800114099438162002010BD03690800DA68C1
:103458009043D0221206D061DB6800200B40D36273
:10346800704710B503695868002821D088421BD1DD
:1034780008689C685860A14200D1986000200860E4
:10348800824206D05A680A609A685960002A00D1B8
:103498009960002010E0814206D108682060986891
:1034A8008142EBD19C60E9E7040000680028F2D172
:1034B800002AE7D11620404210BD10B543685B686A
:1034C800002B00D09847002010BD70B50E001500E5
:1034D8000F21002230001C00FEF714FD80239B03FF
:1034E8009D420FD08023A101DB042340C90FED01C9
:1034F8000AD58900002B01D0082319430122300086
:10350800FEF700FD002070BD002BF7D00223F4E782
:1035180010B5002203210D20FDF730FD0D20FDF729
:1035280021FD10BD30B50469D02000060369E568A7
:1035380053400B40AB430D00C361036A53409D43A6
:103548002B00E5681D4023692B40C362036A5A407B
:103558000A40E168236911409943C162002030BDE7
:1035680030B50368136005790468ED006419A34257
:1035780002D30220404230BD5C798C4201D008332E
:10358800F0E70020F7E7F8B5040001268D0045199B
:10359800AC4201D10020F8BD2078271DC006C00E1E
:1035A80000F00EFA218820788905C006C90EC00EE1
:1035B800FEF7FCFBA27820786178D207C006D20F0C
:1035C800C909C00EFEF70AFC617820788906C00692
:1035D800090FC00EFEF77AFC617820788909C006C9
:1035E8003140C00EFEF762FCA17820784907C0067A
:1035F800C90FC00EFEF74CFCA17820788907C006D9
:10360800C90FC00EFEF7A0FCA1782078C906C00635
:10361800890FC00EFEF72AFCA17820784906C0065B
:10362800890FC00EFEF710FC61882078C905C00616
:10363800890FC00EFEF7F6FBE17820784907C0062F
:10364800890FC00EFEF7DCFB3C00A1E700207047A5
:1036580083680079022809D004280BD001280CD1EE
:10366800C9180B78DBB2002013607047C9180B88A3
:103678009BB2F8E7C9180B68F5E716204042F4E753
:103688000300F0B585B05F6801923E790800F1004B
:10369800FCF7CCFD03AA04000D0081B23800FFF747
:1036A800D7FF002817D101220399EDB2AA400B00D9
:1036B800944693437D79019A954201D063460B4322
:1036C800BA68022E09D0042E0CD0012E0ED1A4B255
:1036D800DBB2A418237005B0F0BDA4B29BB2A41845
:1036E8002380F8E7A4B2A4182360F4E71620404228
:1036F800F1E710B50122FFF7C3FF10BD10B5002296
:10370800FFF7BEFF10BD70B504000D00FFF7F1FF15
:10371800002803D129002000FFF7F0FF70BD030047
:1037280073B55E68080031791400C900FCF77EFDA6
:1037380001AA0D0081B23000FFF78AFF002809D1E5
:10374800019BEDB2EB4001229A43737959424B41F8
:103758005340237076BD02694368127A1B68002AB9
:1037680005D11A6BD2070DD51A6B92050AD59A693D
:10377800D20607D41B680B7043681B6858680F2370
:103788001840704701204042FBE7202243681B682D
:1037980098691042FCD11960704743681B685868E3
:1037A8005A680007C00F520701D5082210430222A9
:1037B8005968114200D010435B68DB0701D5042328
:1037C8001843704710B5036911CB11C1002010BD13
:1037D800030070B5002020265C682468A56935427E
:1037E80002D1151A002D00DC70BD0D5C013025607A
:1037F800F2E7030070B500201025141A002C04DD30
:103808005C682468A6692E4200D070BD24680C54F8
:103818000130F2E7F8B52026436805691A68040004
:10382800936B334393632B7C002B04D000232B74BE
:103838006B69002B0CD1F8BDEFF3108772B620002E
:103848006B69A9699847002F02D162B6BFF36F8FE1
:1038580063681B689B6B3342EED1ECE701222021A1
:1038680003691A7443681A68936B8B4393637047B0
:10387800436801201B689B69DB089843704702690D
:103888004368127A1B68002A06D1196B01320800B6
:10389800FF32104011420BD02022996B00201142B8
:1038A80006D0D96B0130114202D19B69DB0918405F
:1038B800704743681A685023916B0B4393637047B2
:1038C800502143681A68936B8B439363704702696E
:1038D8004368127A1B68002A06D1196B80220800F7
:1038E80092001040114207D09A6B0020D20603D5EF
:1038F8009B6901301B099843704743681A68F02395
:10390800916BDB000B439363704710B50400FFF71E
:10391800DEFF03000120002B04D12000FFF7AFFFDA
:10392800431E984110BD01207047036959619A618F
:10393800704710B503695A69002A0AD0EFF310845A
:1039480072B65A6999699047002C02D162B6BFF3E2
:103958006F8F10BD002070470020704710B50022FF
:1039680003211420FDF70AFB1420FDF7FBFA10BD14
:1039780010B50122FDF7C0FE10BDF0B585B01600E8
:103988000A9A02900391934201D2FFF7A7FC1F0EF7
:103998001C020A9A002320003900FCF77DFC002352
:1039A8000500020039002000FCF776FC3200030015
:1039B800039902980095FEF719F9012005B0F0BDAA
:1039C8000123D022834010B512069362052193612A
:1039D800FEF7ECF910BD7047002809D00123C26832
:1039E80000205178194202D01078424250411840C4
:1039F8007047EFF3108372B6FEE710B5FFF7F9FFD3
:103A080010B543690400002B06D100200123E268A9
:103A180051780B43537010BD98470028F5D0C31751
:103A2800C0185840FF2800DDFF20E3681870EDE754
:103A380010B500F07FF810BD10B500F072F810BD99
:103A480010B5EFF3108372B6FFF741FCF9E703688E
:103A5800426813605A60002303604360704710B5E2
:103A68000400FFF7F4FF0222637B93436373002390
:103A7800A36010BD10B5EFF3108472B6FEF7F0FB2B
:103A8800002C02D162B6BFF36F8F10BD70B5040071
:103A9800EFF3108572B62823427B1A420BD1836854
:103AA800002B01D0FFF7DBFF0422637B2000934348
:103AB8006373FEF7D5FB002D02D162B6BFF36F8F9B
:103AC80070BD10B501211838FFF7E0FF10BD70B5C3
:103AD8000400EFF3108572B60368002B1AD0FEF7C6
:103AE800EBFE06002000FEF717FF802300221B06CE
:103AF80022616361A64206D1FEF702FFFEF7E4FEEB
:103B08000021FDF7B9FF0020002D02D162B6BFF3F6
:103B18006F8F70BD16204042F6E710B5FFF712F818
:103B280010BD002310B59A4200D110BDCC5CC4541E
:103B38000133F8E703008218934200D170471970E7
:103B48000133F9E7030041188B4202D01A78002AA2
:103B580001D1181A70470133F6E7F0B50D00372187
:103B6800C91A8FB0C9B20D911F2104000B400C93E4
:103B78000C99E3B2082955D0102900D164E0E9076F
:103B880060080843690806900791A008A907084338
:103B9800A90808900991089E099F06980799801915
:103BA80079410E07B446060900966646009F3743DA
:103BB8000E0900970196009E019F801979410E0613
:103BC800B4466746060A3E4302960E0A0396029ECC
:103BD800039F801979410E04B4466746060C3E439C
:103BE80004960E0C0596049E059F801979410026BF
:103BF8000A910B960A9E0B9F801979414E07CD08B2
:103C08000521C4083443614349005B1ADBB2092B20
:103C180012D9012000210A3B24184D41DBB21DE0D6
:103C28000200A5E707210B4069078C466646E008B5
:103C3800E908064334000D00303313702300501C8C
:103C48002B43EDD10FB0F0BD0F210B4029078C4657
:103C5800664620092909064334000D00092BEBD9D3
:103C68000D99CB18DBB2E7E7014800687047000000
:043C78000C0200201A
:083C7C00E0CDFF7F0100000014
:103C8400A03C0010C03C0010E03C0010243D00109B
:0C3C9400203D0010283D0010003D0010F5
:103CA00073410010C43E0010303E0010740000202C
:103CB0001C0000206913001000000000000000003C
:103CC00099410010C43F0010203E001078000020F1
:103CD0000000000055360010000000000000000049
:103CE000B3410010400000204C3E00107A0000203C
:103CF000240000206D1800100000000000000000EB
:103D00008D410010BC3F0010FC3D001076000020EB
:103D100020020020C334001000000000000000005A
:0C3D2000E919001031150010F51000101A
:103D2C0000000000A932001000000000A9320010B1
:103D3C0000000000A932001000000000A9320010A1
:103D4C0000000000A932001000000000A932001091
:103D5C0000000000A932001000000000A932001081
:103D6C0000000000A932001000000000A932001071
:103D7C0000000000A932001000000000A932001061
:103D8C0000000000A9320010003D0010B515001015
:103D9C0000000000A932001000000000A932001041
:103DAC0000000000A932001000000000A932001031
:103DBC0000000000A932001000000000A932001021
:103DCC00E03C00103B39001000000000A93200104C
:103DDC0000000000A932001000000000A932001001
:103DEC0000000000A932001000000000A9320010F1
:103DFC0031160010EF3300102D350010FB3300107E
:103E0C002734001053340010D33400106B340010DE
:043E1C0085150010F8
:103E200027370010FB360010053700100F37001041
:103E30001911001059110010000000006B33001020
:0C3E4000533300100000000000000000E0
:103E4C005F37001093370010A3370010793900103A
:103E5C00CD370010D9370010FB3700101D3800107B
:103E6C006538001087380010BB380010C9380010B6
:103E7C0079380010D738001003390010ED160010F7
:0C3E8C00133900102F39001033390010DA
:103E9800000A010A020A030A040C050A0605070BB0
:103EA800080B090B0A0C0B0C0CFF0DFF0E0D0FFF76
:103EB80010FF0000003D00100500110000800040C8
:103EC800004002400080024000C00240000006405E
:103ED800B43F0010010000007D0000000600000053
:103EE800020000000100000064000000050000005E
:103EF80005000000000000000000000040597307A2
:103F08004059730700000000000000004059730783
:103F18004059730700000000000000004059730773
:103F28004059730700000000000000004059730763
:103F3800405973070200000000000000001BB70092
:103F4800001BB70001000000000000004059730783
:103F58004059730700000000000000004059730733
:103F6800405973070000000000000000006CDC02EC
:103F7800006CDC020000000000000000006CDC02A5
:103F8800006CDC0200000000000000001BB700000D
:103F9800006CDC020C000000A00A00001000000009
:103FA800000000000000000000000000BC3F0010FE
:103FB80000000000FFFFFF3F1935001000C000405F
:103FC8000400000000C00040D83F001001000000BD
:103FD800E03F00100200000040040000410402001D
:103FE800843C0010843C0010943C0010983C001065
:103FF800A03C0010A03C0010427574746F6E2070D5
:104008007265737365642061742025750A004572B2
:10401800726F723A20627574746F6E206465766987
:104028006365202573206973206E6F742072656143
:1040380064790A004572726F722025643A206661BD
:10404800696C656420746F20636F6E66696775724A
:10405800652025732070696E2025640A00457272F8
:104068006F722025643A206661696C656420746FFC
:1040780020636F6E66696775726520696E74657214
:1040880072757074206F6E2025732070696E2025FC
:10409800640A0053657420757020627574746F6EBD
:1040A8002061742025732070696E2025640A0045FC
:1040B80072726F722025643A204C454420646576FC
:1040C800696365202573206973206E6F742072659B
:1040D8006164793B2069676E6F72696E67206974E5
:1040E8000A004572726F722025643A206661696C15
:1040F800656420746F20636F6E66696775726520EA
:104108004C45442064657669636520257320706991
:104118006E2025640A00536574207570204C454450
:104128002061742025732070696E2025640A005070
:10413800726573732074686520627574746F6E0A93
:104148000061626F727428290A000B0A0E0C0F10A6
:10415800050A0B0E0C0F100A0B0D0C0F100B0F108D
:104168000A0F100B0E0C0507080904636C6F636BCC
:104178002D636F6E74726F6C6C65724034303030C2
:1041880038303030006770696F2D706F727440304E
:104198000072657365742D636F6E74726F6C6C65F5
:1041A80072403430303063303030007561727440A2
:1041B8003430303334303030006D61696E002A2A73
:1041C8002A20426F6F74696E67205A657068797229
:1041D800204F53206275696C642076342E322E305D
:1041E8002D7263322D33342D673830386565313799
:1041F8003133646134202A2A2A0A00286E756C6CCF
:0C42080029002A666C6F61742A00000017
:10421400003D00100D000000653200100000000099
:10422400EB3200100000000000000000A02E63002C
:10423400A02E630000C20100000103000000000082
:10424400000000000000000000000000000000006A
:1042540000400340D03F00100000000000000000B8
:10426400A03C0010060000006539001000000000AA
:10427400613900105D390010C80000006C00002096
:044284006C000020AA
:0842880000000000000000002E
:0442900015E015E040
:0400000510000E6970
:00000001FF
