:020000041000EA
:1000000000B5324B212058609868022188439860DF
:10001000D860186158612E4B002199600421596104
:100020000121F02299502B49196001219960352056
:1000300000F044F80222904214D00621196600F024
:1000400034F8196E01211966002018661A6600F04E
:100050002CF8196E196E196E052000F02FF8012189
:100060000842F9D1002199601B49196000215960AB
:100070001A491B48016001219960EB211966A021F2
:10008000196600F012F800219960164914480160C1
:100090000121996001BC002800D000471248134993
:1000A000086003C880F30888084703B5996A0420EC
:1000B0000142FBD001200142F8D103BD02B5186610
:1000C0001866FFF7F2FF186E186E02BD00000240BE
:1000D000000000180000070000035F00212200005C
:1000E000F4000018222000A00001001008ED00E03C
:1000F000000000000000000000000000070B8FD58A
:10010000D02400202D200010D358001019200010FA
:1001100000000000000000000000000000000000DF
:100120000000000000000000000000000921001095
:10013000000000000000000099200010953300101E
:100140007922001079220010792200107922001003
:1001500079220010792200107922001079220010F3
:1001600079220010792200107922001079220010E3
:1001700079220010792200107922001079220010D3
:1001800079220010792200107922001079220010C3
:1001900079220010792200107922001079220010B3
:0801A000792200107922001001
:1001A80002B4714649084900095C49008E4402BC02
:1001B8007047C046002934D00123002210B4884279
:1001C8002CD301242407A14204D2814202D209017E
:1001D8001B01F8E7E400A14204D2814202D249009F
:1001E8005B00F8E7884201D3401A1A434C08A04242
:1001F80002D3001B5C0822438C08A04202D3001BD8
:100208009C082243CC08A04202D3001BDC082243EE
:10021800002803D01B0901D00909E3E7100010BC2E
:10022800704701B5002000F05FF802BD0029F8D042
:1002380003B5FFF7C1FF0EBC4243891A1847C046F1
:10024800002941D010B404004C40A44601230022E8
:10025800002900D54942002800D5404288422CD3C5
:1002680001242407A14204D2814202D209011B01C0
:10027800F8E7E400A14204D2814202D249005B00BF
:10028800F8E7884201D3401A1A434C08A04202D327
:10029800001B5C0822438C08A04202D3001B9C0868
:1002A8002243CC08A04202D3001BDC0822430028CA
:1002B80003D01B0901D00909E3E710006446002CAC
:1002C80000D5404210BC704701B5002000F00CF882
:1002D80002BDC0460029F7D003B5FFF7B3FF0EBC37
:1002E8004243891A1847C0467047C046D0400B00A1
:1002F800D1409C46203AD34018435242634693402B
:10030800184370471C2101231B04984201D3000C99
:1003180010391B0A984201D3000A08391B09984270
:1003280001D30009043902A2105C40187047C04686
:1003380004030202010101010000000000000000A6
:10034800002B11D1002A0FD1002900D1002802D09A
:100358000021C943080007B4024802A140180290CE
:1003680003BDC04685FFFFFF03B4684601B5029888
:1003780000F0CBFB019B9E4602B00CBC7047C04608
:100388004A02F8B543024400C50F500A84464800A3
:10039800240E000E5F0AC90F9B099209261A8D4286
:1003A80000D09EE0002E42DD8021C90400281ED125
:1003B800002A0AD0661E012C05D19B1801340B4275
:1003C80046D1013C01E0FF2C14D15A0704D00F227A
:1003D8001A40042A00D004335A0100D42EE1013413
:1003E8000026FF2C19D09D4EDB081E4015E0FF2C7F
:1003F800EBD00A431B2E01DD0133E6E72020801BEA
:1004080011008240F140501E82410A439B185A0154
:10041800DBD501340026FF2C1AD1FF23E005DB05CC
:100428007602760A18403043ED072843F8BD002EBF
:100438002ED08026011BF604002C14D1002B00D1ED
:10044800F3E04C1E01290AD19B1802243342B8D08C
:10045800012283491A405B080B401343B5E7FF2983
:1004680006D11300AEE0FF2800D1E0E00C003343D2
:100478001B2C02DD531C0400A7E719002026E140CD
:10048800341BA3405C1EA3410B4304009B18BEE72A
:10049800FE20611C01421ED1002C0DD1002B00D181
:1004A800C7E0002A00D190E79B185A0100D48CE7D6
:1004B8006C4A13400C0088E7002BD2D0FF24002A96
:1004C80000D182E78023DB039F4202D39C4500D200
:1004D8006746FB0076E00C00FF299ED09B185B085E
:1004E80073E7002E25DD00281CD1002A00D16CE717
:1004F800661E012C06D19B1A5A0100D465E79B01A0
:100508009E0975E0FF2C00D15FE701211B2E07DC57
:100518002020801B11008240F140501E824111436F
:100528005B1AE9E7FF2C00D14FE78021C9040A4391
:10053800EBE7002E25D0051B002C0DD1002B08D091
:100548006E1E012D03D10D00D31A0134D4E7FF2DFF
:1005580008D113002C0021E0FF286CD080242E0045
:10056800E404234301241B2E07DC2025AD1B1C00BB
:10057800AB40F4405D1EAB411C43131B0D0004004F
:10058800BAE7FE26601C30422DD1002C14D1002B76
:1005980006D125002600131E00D13EE70D0014E702
:1005A800002A00D111E79E1AD31A7001F6D4331E1F
:1005B80000D00AE7350030E7002B05D1002A49D0E2
:1005C80013000D00FF2400E7FF24002A00D1FCE6F9
:1005D8008023DB039F4200D27BE79C4500D378E76A
:1005E80067460D0075E79E1A700115D50D00D61ADD
:1005F8003000FFF787FE330005388340844210DC63
:100608002022001B0130121A19009340C1405A1EC3
:10061800934100240B43D8E6002EE9D1350034007D
:10062800FBE6104A241A1340CFE6130042E71300F2
:1006380021E71300C9E613000400AFE7DE08FF2C2A
:1006480000D0EAE6002E00D1E7E68023DB03FF2492
:100658001E43E2E680261500F603F6E7FFFF7F1F3C
:10066800FFFFFF7DFFFFFFFBF0B5C30F85B044021E
:1006780045000F1C640A2D0E039302930AD0FF2D28
:100688003BD08023E400DB041C4300237F3D01951D
:1006980000930EE0012301940093002C09D0200060
:1006A800FFF730FE431F9C4076235B421B1A0193E1
:1006B80000957D027E006D0A360EFF0F002E23D0B6
:1006C800FF2E2ED08023ED00DB041D4333007F3B3B
:1006D800002201980399C31A0098794080001043BA
:1006E80001380E2823D8FFF75BFD4D99739992992D
:1006F800734D4D927361616153000223019500931C
:10070800002CD6D00133C3E72B000122002DE0D006
:100718002800FFF7F7FD431F9D4076235B421B1A15
:10072800D6E733000222002DD3D00132D1E764018D
:100738006D01AC4228D31A200122641B0126270030
:1007480052006400002F01DBA54201D8641B32432C
:1007580001380028F3D1601E8441144318007F300B
:10076800002838DD620704D00F222240042A00D076
:100778000434220103D5803318002B4A1440E508BD
:10078800FE281DDD00250FE01B200022013BD5E7D8
:100798008023DB031C4203D01D4201D12C000297A9
:1007A80080250299ED032543FF2009E00399009A6B
:1007B800022AE7D0032A2FD000252800012ACDD10C
:1007C8006D026D0AC0052843C907084305B0F0BD8E
:1007D8002C003900ECE701220025121A28001B2AF8
:1007E800EEDC9E3325009C40D540631E9C4125438A
:1007F8006B0704D00F232B40042B00D00435802333
:100808002800DB0418401D420BD1ED08D8E78024EE
:100818000023E4030293C3E70291C1E700252800FF
:10082800CEE700250120CBE7FFFFFFF7F0B5C30FA8
:1008380085B04702440002917F0A240E03930AD030
:10084800FF2C71D080227F3C26000023FF00D204B9
:10085800174301930CE001233E1E019308D0380092
:10086800FFF750FD7626431F9F407642361A0194C3
:10087800029B5C025D00DB0F640A2D0E02935AD0C6
:10088800FF2D64D080232800E400DB041C437F385C
:1008980000230299039A4A40811901988C468500E1
:1008A80001311D430A2D00DD78E0022D55DC013DA4
:1008B800012D63D9250CA4B226003B0CB8B24643DF
:1008C8005C4368436B4300191F00330C1B189C42A0
:1008D80002D9802040023F181804B6B28619B40124
:1008E800601E84411B0CB60EDB1934439B011C436C
:1008F8001B0168D5012360081C40044308007F30B1
:10090800002862DD630704D00F232340042B00D0A6
:100918000434230103D5803108003E4B1C40E50810
:10092800FE2833DD00254CE0022326000193002F2A
:100938009ED001338DE720000123002CA9D0FFF7BA
:10094800E1FC431F9C4076235B42181AA0E728006D
:100958000223002C9DD001339BE70120A840A62547
:100968000600ED002E4028421DD19025AD002842FA
:1009780047D1B93DFF3D28429CD0029A022BD1D0E5
:10098800032B42D000252800012BB7D16D026D0A38
:10099800C0052843D207104305B0F0BD039A0F2DB8
:1009A80004D00B2DE9D03C00019BE7E78023DB0353
:1009B8001F4203D01C4201D12700029A8025ED0373
:1009C8003D43FF20E2E7614698E7012300251B1A13
:1009D80028001B2BDADC9E3125008C40DD40631E8D
:1009E8009C4125436B0704D00F232B40042B00D0D8
:1009F800043580232800DB0418401D4207D1ED0888
:100A0800C4E780273200FF03D8E72700D6E7002590
:100A18000120BBE7FFFFFFF741024300C20F490A6D
:100A280000201B0E7E2B03DD9D2B02DD084BD0180A
:100A38007047802000040843952B05DD963B9840BD
:100A4800002AF5D04042F3E79621CB1AD840F7E7C1
:100A5800FFFFFF7F002370B50400984209D0FFF71D
:100A680051FC9E231B1A962B08DC082829D008382D
:100A780084406402D805640A204370BD992B1BDDAD
:100A8800020021001B3291400A00511E8A410521B3
:100A9800091ACC40144322000B4D2A40610704D0A8
:100AA8000F212140042900D00432510102D59F238F
:100AB8002A401B1AD408DCE7421F0528EBD09440D3
:100AC800E9E79623D5E7C046FFFFFFFB9140030007
:100AD80090409C46203A9340194352426346D34083
:100AE8001943704710B5002903D1FFF70BFC2030DC
:100AF80002E00800FFF706FC10BDC0460023C25CF8
:100B08000133002AFBD1581E7047F0B506000F00CC
:100B180015001C0085B08B4263D801D1824260D891
:100B280021002800FFF7DEFF390000903000FFF7B2
:100B3800D9FF009B21001B1A1A0028000393FFF716
:100B4800C5FF00900191B94245D801D1B04242D8C1
:100B5800009B019C01200021039AF61AA741FFF788
:100B6800B5FF04000D00039B002B2BD0019B009ABE
:100B7800DB0750081843019B5908039B9C46B94260
:100B88002CD801D1B04229D832003B00121A8B412F
:100B9800012692185B410027B6185F4101235B428A
:100BA8009C446346002BEAD130003900039AFFF7D2
:100BB8009DFB039AA4197D4106000F00FFF786FFED
:100BC800241A8D410A9B002B01D01E605F60200013
:100BD800290005B0F0BD00240025C4E7B6197F41FF
:100BE800DCE700240025EDE737B50020019000F090
:100BF8001BFC00281AD1FA240025A400019B002B15
:100C080007D00B4804F023FC00210A4803F0B0FD8C
:100C1800F7E7094883681B6D002B02D0042101AA5D
:100C280098472000290003F0A3FDE7E737BDC04639
:100C3800F86A001050C300004067001010B5024B5E
:100C48001B68984710BDC046B0000020014B1860D3
:100C58007047C046B000002030B585B004000D00D4
:100C680010220021684605F082FC6A460223937030
:100C7800044B2A0021006846019304F091F805B05E
:100C880030BDC046450C0010F7B504000D001E002D
:100C9800019203F0B3FD030005F004FD054F320097
:100CA8003B5001992800A04705F0FCFC385801F09A
:100CB800D3F9C04608000000F7B5114B114C5B6A28
:100CC8000093114B0193019B9C4202D38620404222
:100CD80012E06368009DAB420FD32569002D0CD04C
:100CE8009F7803799C46664643791B023343FF2667
:100CF80033409F4201D1A847FEBD2434E3E7C046F4
:100D0800C806002094030020B8030020F7B50400AB
:100D18000E001700144D154B9D4202D38620404209
:100D280018E0134B69685B6A99421BD3AB69002BC7
:100D380018D08A7801922279944660466279120224
:100D48000243FF2002400198904204D13A0031004A
:100D580020009847FEBD4A79012A03D13A003100A4
:100D6800200098472435D6E794030020B8030020D4
:100D7800C8060020F8B505000E001700094C0A4BFC
:100D88009C4202D3862040420AE06369002B01D1CD
:100D98002434F4E73A003100280098470028F7D1B6
:100DA800F8BDC04694030020B803002010B5040025
:100DB80004F04BFE0300783301D0002807D120004F
:100DC80004F0E2FB024A136883430020136010BD5D
:100DD8008C07002010B508220021024805F0C7FB47
:100DE80010BDC0468307002030B50A4B0A4CA34209
:100DF80001D3002030BD1A7F196AD20052189142DF
:100E080001D12433F3E708310D1F2D788542F6D13F
:100E18000120EFE794030020B8030020F7B56B46E4
:100E28000479DD1D0E002C70630609D02000FFF741
:100E3800DBFF002811D000200C4B1B7883420CD01C
:100E480020000B4F002E09D001F0E8FCFB69002BB5
:100E580002D02900082098470120FEBD04F0D1FDEA
:100E6800FB69002BF8D029000920F4E7820700204D
:100E7800C806002010B5084C23785B069B0F0A3380
:100E88009B001B59181E05D02000044A04499847A6
:100E9800C043C00F10BDC046C8060020D0060020C1
:100EA800D8060020F0B585B004000191042813D0BD
:100EB800012828D1204B1B78002B24D000F0BEFD40
:100EC8001E4E1F4B9E421BD20025336A0293337F6E
:100ED800AB4204D82436F4E7FFF77CFFEAE7029B2D
:100EE800EF00DF19387904F0B0FD0390387904F089
:100EF8004BFB144A136883431360039B002B0FDAE0
:100F080000220D4B1A700D4D0D4B9D420BD30E4B0D
:100F18001B6A002B02D020000199984705B0F0BD4C
:100F28000135EDB2D3E7EB68002B03D02100280090
:100F3800019A98472435E7E78107002094030020A9
:100F4800B80300208C070020C806002073B56B4644
:100F580086781E70437902791B0213436A465380D0
:100F68000322C378300013406A46137104F00CFB67
:100F7800174B05001B68174C03420CD0300000F0DB
:100F880043FD3000FFF712FF05F015FA002802D1E3
:100F9800963005F082FA684604F023FD03007833A2
:100FA80003D0002801D0002076BD6B46187801F0E8
:100FB8005DFC0300783301D00028F4D12300012020
:100FC800B933C434187023682B432360ECE7C04658
:100FD8008C070020C8060020F0B5A84F0600BB69A2
:100FE8000C00150085B0002B18D13178C806C00E4A
:100FF800012800D183E0022800D1FEE0002823D197
:101008002A6873787F2934D9062B0CD0082B2BD06B
:10101800002B19D11370537002332CE19847002824
:10102800E3D1002012E0F378B1781B0219431B0AC0
:101038001A1FDEB2012A07D9072B05D8CAB20192B6
:101048007A6A1778002F03D11620404205B0F0BD08
:101058005178B14204D10199814200D103E10130B4
:10106800D219EEE7137806E1BA373B7813700123FB
:1010780001E1052B13D0092BE6D1F378B2781B02D6
:101088007C6A134338D1FFF7A5FE3900B378BA312B
:101098000B70FB69002BC4D003209847C1E7B078D8
:1010A80001F0AEFB0028BCD0CEE76378042B0CD04F
:1010B800052B14D0022B0AD1F378B27865791B027C
:1010C80013439D4203D1012001E0E3780193237883
:1010D800E4182378002BE8D10028B5D0D3E7F378BB
:1010E800B2781B0213439D42F1D1019B002BEED134
:1010F8002000FFF72BFFEAE7FF250195E9E72B68BA
:1011080002933B00BA331B78002B9DD07379327958
:101118001B021343DAB294467A6A01921578002DBD
:1011280000D191E750780390022803D110796045E7
:1011380000D9A5E05219F1E7029B1A705A70039B77
:1011480099E001998A180192A4E00B2A00D07BE764
:101158000024FF25039402950AE0019B5B78042B89
:1011680014D0052B2ED0019B019A1B78D31801931C
:10117800019B1B78002BF0D1FB69002B02D00720C4
:1011880003999847002C00D04BE75DE7019BDB787B
:101198000293019B32799D7873791B0213439D4218
:1011A800E1D1F378B2781B021343029A9A42DAD15A
:1011B800019B00240393072DD5D87B19BB331A70E4
:1011C8000134D0E7737932791B0213439D42CAD1A7
:1011D800B378029A93420BD0019B9C78200000F0D0
:1011E80013FC2000FFF7E2FD43425841C4B2BAE7BE
:1011F8000198FFF7ABFE0400B5E773787F2918D98B
:10120800002B00D020E736792D6873060AD030000D
:10121800FFF7EAFD002800D116E7BA373B78002B24
:1012280000D111E72900300004F000FC00236B70A6
:10123800F2E6012B0AD0032B00D005E7F378B27849
:101248001B02134300D0FFE6012105E0F178B378D3
:101258000902194300D0F7E63000FFF7DFFD002848
:1012680000D0DEE6F0E62A60022B00D0FAE6D3785A
:1012780091781B020B432360D3E6C046C8060020C2
:1012880072787F2900D860E7002A00D154E70A2A3B
:1012980000D0D9E6019A1278002A00D1D4E6019943
:1012A8004978042900D04CE7019989788B4200D00D
:1012B80047E70022072B02D8FB18BB331A78029B9A
:1012C8001A70D4E613B5154C237D002B1ED1E268A5
:1012D80001AB8020A168019204F067F9019AA36824
:1012E8009B18A360E3689B1AE3600ED1002A0CD018
:1012F8002069E388834208DD2300C8331978FEF7A4
:10130800E9FF002901D10123237513BD00218020A5
:101318000B000A00217501F0D1FAF6E7C806002093
:10132800002330B585B00D000193984257D19942FA
:1013380036D10B000822280002A904F0A3FB0028DC
:1013480004DA802001F06AFA05B030BD6B46294CFA
:10135800029ADB892260039A25756260264A256114
:10136800A2606A46127AE56052B2002A0BDB802B33
:1013780004D9802001F052FA0020E3E7002B02D0C4
:101388002361E360E0E7FFF775FD0028D9D0226903
:10139800E388934200DD1300E360FFF793FFD3E790
:1013A800144C01ABE268A168002A05DC020004F0D5
:1013B80069FB0028C8DAC4E704F064FB0028D8DB1E
:1013C800019AA3689B18A360E3689B1AE360BBD1EA
:1013D800094BA360FFF74EFD0028DED1B1E7802856
:1013E800B2D1044BDA68002AD7D11B7D002BD4D1A7
:1013F800AAE7C046C806002000070020054B064A99
:1014080058629A62054A0020DA62054A1A63054A58
:101418009A617047C8060020E10F0010C10C001047
:101428007D0D0010150D0010F0B5040085B0474B78
:101438000093009801225242D31702F033FC444B28
:10144800444D1B78002B00D07CE06B6A002B0FD03A
:1014580041482C62E8616E6A01F0CCF901F034F978
:10146800041E0FDA009802F095FC200005B0F0BDCC
:1014780000F0B4F8FFF7C2FF6B6A002BE8D1012433
:101488006442EFE700F0FAFA041EEBDB7378012BF5
:101498005AD1F379002B57D02A000026C83213708E
:1014A80002AA100053801671167004F09AFA04000C
:1014B800B042D7DB802702AB18001F7004F091FA06
:1014C8000400B042CEDB254B30001900019304F034
:1014D8005EFA0400B042C5DB3800019904F057FAFF
:1014E8000400B042BEDB1E4E1E4B9E4218D30020A5
:1014F80001F0BCF9041EB5DB2E000127C4363368A1
:1015080080203B43336001F0B1F9041EAADB80233D
:1015180032685B021343B835002433602F70A1E7AB
:101528000024376A337FA34201D82436DCE7E3007E
:10153800FB181879196804F02AFA00289FD1013499
:10154800E4B2EFE778249BE7162499E78C020020A1
:1015580080070020C8060020AD0E001029130010D7
:1015680094030020B8030020F0B58BB0112219496C
:1015780005A804F0F3FF1022002101A804F0F7FFEA
:10158800154C12220021200004F0F1FF102101A8BF
:1015980004F0CFFB00281ADD082800DA08200838F4
:1015A80001AB1B180F2021000022844614276D462A
:1015B800985CED190609AE5D654628406D46ED1943
:1015C800285C01320E7048700231082AEED12000E2
:1015D8000BB0F0BD2A6B0010B90F0020F0B5754BA9
:1015E8008BB01B780393002B02D073480BB0F0BD6F
:1015F800714C724B029300231D00059304930193D1
:101608002378002B07D16E4B02349C42F1D1012282
:10161800684B1A70E9E76078052820D8FEF7C0FD06
:101628009103C891223F039A08AB1A70402308AA75
:1016380053801300039A18001A7104F0C3F90028A4
:101648000AD0082308AA1000538004F0BBF9002828
:1016580002D0039A08AB5A8008AB5B88E371237801
:10166800E418CDE7E378002BF9D1A378002B0CD050
:10167800049B0133DBB20493F1E76A68944207D014
:1016880024359D42F9D30020B0E74E4D4E4BF8E784
:10169800AB68002BECD0200004999847E8E7002DB0
:1016A800F1D000272B7F9F42EDD22A6AFB00D31886
:1016B8000693A2781B799A4201D00137F2E70126F6
:1016C8000322F3B20793E378134008AA13716379EE
:1016D80022791B02134308AA5380A3787F2B22D9AF
:1016E8003300012210339A401300029A1A4224D17F
:1016F8008023079A134308AA1000137004F062F9B4
:1017080000281AD108AB1B78069AA37013715BB234
:10171800002B0FDA0123079F1037FFB2BB40029A54
:101728001A4302929BE70123B340029A1A4204D15A
:10173800F3B2E0E70123B340F1E70136102EBFD141
:10174800BBE7059B032B1BD1FFF70EFF061E0AD034
:10175800FFF7D4F9021E06D0A01C102A00DD1022C3
:10176800310004F0FBFE2378E2185B08E318911EB1
:10177800121B032A15D5059B0133DBB205936EE7CF
:10178800059B002BEFD1019B002B00D17BE7019A31
:10179800E31A93709BB21B0AD3701300049A1A7150
:1017A800E9E7039A013B4A705A780A700A00DEE7B3
:1017B800019454E7B80F0020C8020020010001007E
:1017C8009303002094030020B8030020094A002353
:1017D800110010B51478844205D15468002C02D049
:1017E8009B01C81810BD01334032042BF2D10020F0
:1017F800F8E7C04694070020F0B504002C3C636865
:101808000500267885B010330AD1E16BE2688B07B2
:101818002FD5002A18D10423194213D0002363605E
:10182800636810330CD0236967690193A369009337
:1018380004F0C1FD00283FD02900254804F0A3FD8D
:1018480005B0F0BD0B43E3633000A16803AB03F0C0
:10185800ACFE002802D016235B42E0E7039AA36897
:101868009B18A360E3689B1AE36023699B182361B4
:10187800D6E73000A16803AB01F076F80028EAD17A
:10188800039FA368DB19A360E368DB1BE36023699C
:10189800DB192361002FC1D0300004F006F90100E4
:1018A8003800FEF7C3FC0029B8D1E368002BB5D097
:1018B800300001F0A1F8B3E760612800103802F0A9
:1018C800B5FA002FBCD03000009A0199B847B7E7A5
:1018D800B80300204B1E73B506000D00012B0FD86E
:1018E800FFF774FF041E0CD1012D09D1694601AB25
:1018F80001223000033101F037F8019B002BF5D1AC
:1019080073BD04F058FD21002C31002801D0012DB1
:1019180003D10800FFF770FFF2E7024804F033FD37
:10192800EEE7C046B8030020F0B587B00600059181
:101938000292039303F07DFE00285AD1EFF310833F
:10194800049372B607002C4B0193002200230198E0
:1019580002F09EFA00280AD1284BBA019C18656843
:101968002900103114D1019802F060FA07E0019BB8
:10197800013740330193042FE7D10C256D42049BB6
:10198800002B02D162B6BFF36F8F280007B0F0BDFD
:10199800D654059B2061A360029B3000E3600C9B3A
:1019A8006361039BE3630D9BA36110235B42636048
:1019B80004F07BF800280CD0300004F076F8010021
:1019C8000298FEF733FC002903D00423E26B13438B
:1019D800E363039B9B0707D5094BB9010948C9185D
:1019E80004F0D1FC0025CAE7300001F005F8050035
:1019F800C5E710256D42C8E7B0070020940700200E
:101A0800C0070020B803002010B5EFF3108472B6A9
:101A1800FFF7DCFE011E09D04368103306D18C2382
:101A28005B4243602C31044804F0ADFC002C02D129
:101A380062B6BFF36F8F10BDB803002070B50025E4
:101A48000C4CEFF3108672B66368103307D18C2301
:101A580021005B42084863602C3104F094FC002E9E
:101A680002D162B6BFF36F8F01354034042DE8D13F
:101A780070BDC04694070020B803002070B500254B
:101A88000126084C2000084904F065FC20003200BB
:101A980031001038013504F022FC4034042DF1D116
:101AA800002070BDC00700200118001010B50169A2
:101AB80001220B004B331A700B68002B08D00B0067
:101AC80049331B78002B03D00248083104F05BFC33
:101AD80010BDC046B803002010B5036901211A00E3
:101AE8004A3211701A68002A08D0190048331B7846
:101AF8000831002B02D0024804F045FC10BDC04656
:101B0800B803002070B50569EFF3108672B62B0094
:101B18009033186803F0F6FC0400002E02D162B678
:101B2800BFF36F8F002C06D0290000220023034842
:101B3800183102F023FB200070BDC046B803002016
:101B4800130070B514000D001100012248331A70FB
:101B580023680831002B07D023004A331B78002B59
:101B680002D00D4804F00FFC230090331B685A89FB
:101B7800DB889A4206D1002D0DD121001831FA22B6
:101B8800920004E0210000221831002DF7D0002334
:101B9800014802F0F3FA70BDB803002070B50600E2
:101BA8000D0001791248140003F021FD00281BD014
:101BB800327873787F2A10D8202B03D0222B08D0B4
:101BC800862012E007222168103804F0C7FC0020A4
:101BD80070BDB37809380370F9E7212BF0D11038BC
:101BE8001A3B20602B60F2E713204042F0E7C04622
:101BF80094080020054B010010B5180003F004FDFF
:101C0800002802D001230738037010BD9408002073
:101C1800030070B50025040048331D8007220949D8
:101C2800943004F09BFC230020009C331D70013B82
:101C38001D70033329001D809D7040224C3004F034
:101C480096FC70BD8469001010B504690022230059
:101C5800A43318605A600B4A0433516800290DD127
:101C68005360136020000849083004F074FB20001A
:101C78000649183004F093FB002010BD0B60536038
:101C8800F0E7C046940800206B560010551D001060
:101C980030B50B000E4985B001918021890202916F
:101CA80001A90B810023046942689D342370126ADC
:101CB800084D10790A2203F078FC2378002B05D10F
:101CC8000120013D04F0A9FA002DF6D105B030BD80
:101CD800A1200000A186010073B56B460469DD1DD3
:101CE8002300002248331A702970EFF3108672B669
:101CF8002300903301222900186803F003FC002E0A
:101D080002D162B6BFF36F8F01280ED004F053FBE7
:101D1800002804D12300A1331B78002B0DD1094BD7
:101D28001A78002A01D101321A7021000A220023F0
:101D38001831054802F022FA73BD00210A2002F08A
:101D480017FDD2E7CB0F0020B80300207FB50300B2
:101D58008C331B6805005B681B6A1E7D300003F02E
:101D680068FC00282FD12B0086331B78002B2AD043
:101D7800A86F4289C3889B1A80229BB2D2009342E3
:101D880000D91300010003AA0A3103F06BFB0028F5
:101D980019D02B00002230331A703F2303405A42D7
:101DA8005341C41A2B00183B0193074B2200039997
:101DB800009330000223FFF7B7FDA86F220001004F
:101DC8000A3103F086FB7FBD491B001073B505007F
:101DD8001400002925DD16000A0021008C36306821
:101DE8004C3103F08FFB2300012249331A7023681A
:101DF800002B09D023004B331B78002B04D0210083
:101E08001048083104F0BFFA326893889189126942
:101E18005B1A9BB2D31A3F2B03D80123A03423703B
:101E280073BD23009E331B78002BF9D02100064B8D
:101E380040220093280001234C310194FFF774FDE0
:101E4800EEE7C046B8030020D51D00101D4BF7B5BE
:101E58000F000100180003F0BFFB041E23D005008B
:101E68000368781E5E68A43D05281CD8FEF798F91B
:101E78001C1B031C2024A31F1978002913D101223D
:101E88001A70336A2A00187B5C3CFFF79FFF2178A1
:101E9800002908D1336A0A00187D0B4B019500937D
:101EA8000223FFF741FDF7BD2800FFF7B1FEFAE76F
:101EB8000123053C2370F6E7053C2378002BF2D07C
:101EC8000023F7E794080020491B001037B50123C9
:101ED80000258022064C0749200000955B42D2006D
:101EE80002F008F92000044904F06BFA28003EBD0E
:101EF800B8030020D00F0020456B001030BFFDE76D
:101F0800F7B50A4B0A4D0600EF18CC1B2A00200033
:101F18000849019304F022FB60190021019A04F09A
:101F280026FB3800083C74660830FEBD040000003B
:101F38000000000084690010054B5A699B689A42AA
:101F480005D08023034A5B0551680B4353607047F3
:101F5800840F002000ED00E070B5224B0C005B6898
:101F680088B0DB05DB0D62B6BFF36F8F0025160E58
:101F78002900FF2E09D1F33E1640082E05D0010096
:101F88000135120701D5210000250024032B14D1A7
:101F98008B69154A934202D3144A934206D3144AD2
:101FA8000024934209D3134A934206D2023B1A886B
:101FB800114B00249A4200D10C682022684604F094
:101FC800CDFA079B002D0AD0DA0502D10B4A13433C
:101FD80007936946200003F06AFC08B070BD5B0AED
:101FE8005B02F5E700ED00E0A8010010C8660010EC
:101FF800000000200000002002DF0000FF010000B8
:102008000821024A53698B435361704700ED00E091
:10201800EFF30880EFF3098101B57246FFF79CFFE3
:1020280001BDC046094880F3088872B608480949C6
:10203800401880F30988EFF314800221084380F3E5
:102048001488BFF36F8F03F04CFC0000D0240020ED
:10205800D01700200008000010B50A4B9B68834287
:102068000DD1EFF30583002B09D08022064B5205D2
:1020780059680A435A605A6A04490A405A6202F087
:10208800C3FB10BD840F002000ED00E0FF7FFFFFC1
:1020980015498A6815481044EFF3098CF0C0434687
:1020A8004C4655465E466746F8C072B6104F114E0C
:1020B8004A698A603E60104C141920680F4C2060F1
:1020C800906E00239366002800D162B6074C101961
:1020D8001030F8C89846A146AA46B346BC462438EC
:1020E800F0C88CF309887047840F00203000000086
:1020F80004ED00E000000008640000009C080020D7
:1021080004207146014202D0EFF3098001D1EFF3B8
:1021180008808169023909780229FFD001B5724621
:1021280003F0CDFB01BDC04643B2000605D41F2213
:102138001A4001239340014A1360704700E100E010
:1021480043B2000609D41F221A4001239340034AD0
:10215800D367BFF34F8FBFF36F8F704704E100E081
:1021680030B5FF2503220B00290040B20240D200FF
:1021780091409B012B40C943934000280ADBC024AF
:102188000A4A800880008018A40002590A401343B4
:10219800035130BD0F2210400838054A80088000DE
:1021A8008018C26911401943C161F2E700E100E0FB
:1021B80000ED00E0FF22044B9343044A9360BFF311
:1021C8004F8FBFF36F8F70470001001000ED00E0E4
:1021D80010B5203A1360029B01245360039B064903
:1021E8009360049BA143D36080235B04D3610023E5
:1021F80091610265836610BD910C001070B50B4BA0
:1022080015009860426E0A4B0E001A602C1C86F36B
:1022180009880020034B9847201C00210022002336
:10222800014C204701590010910C0010840F002028
:102238009C0800201022014B1A61704700ED00E055
:10224800F0B5C02400220326FF25A40010002F00AB
:102258003040C0008740054993089B005B18195916
:102268000132B94319511A2AF0D1F0BD00E100E05A
:1022780010B5EFF30583054A103BDB00D118496818
:1022880098588847FFF758FE10BDC046BC67001035
:1022980010B5024B1B689847002010BDA00800200D
:1022A800034B044A1860022391780B4393707047DC
:1022B800A0080020F400002010B5044803F0C7F877
:1022C80062B6BFF36F8F0423181C02DF4E6B001039
:1022D800072310B50449054A99430548521A03F0E3
:1022E8005EF8002010BDC0464F31002000200420B9
:1022F800A40800200200802103008A4300200F2A3E
:1023080008DC5AB20448002A00DA04482C228B431D
:102318005343C0187047C046B4080020740B00200F
:1023280070B50400FFF7E6FF036A05001B685B054C
:1023380026D566B201F0F0F9012816D9114B6400D0
:102348001C40F343DB0F1C430123A3400E4A0F49F3
:1023580013664A6E1A409A42FBD1296A0C480A68E9
:1023680002400A600B4A136604E02A6A08491368A7
:102378000B401360002E03DA28000C3001F056FDE4
:1023880070BDC046FEFEFFFF002011500000115036
:10239800FFFBFFFF00301150F0B589B00E2252420A
:1023A80000240392002600278022104D06960797E6
:1023B80028000F4B0F490494029401940094D20012
:1023C80001F03EFF0C49280003F0FBFF0B4883682F
:1023D8001B68A34205D007219847A04204DC09B036
:1023E800F0BD58204042FAE72000F8E748040020F2
:1023F80049240010D0130020576B0010006700100C
:1024080010B50100024C200001F09AFB10BDC04637
:10241800A00200201FB500246B461C7106230293FE
:102428006B4600221C7301A80023FFF7E9FF024B4B
:10243800024A9C541FBDC046B00800208B0500000E
:10244800F0B5802501267642F71785B06D00114852
:102458003B0001A9320001F0C9FB6B46197900293C
:1024680010D01C7B2000FFF745FF0299002902D1FC
:10247800094B0A4A9D524368002BE8D02000C9B294
:102488009847E4E7044B1B68002BE0D00298C0B2E1
:102498009847DCE7A0020020B0080020840500006F
:1024A800F0B57D4B89B01C687C4B1C4206D07C4B38
:1024B8007C4A9B5C002B01D0FFF7ACFFE3060AD5F2
:1024C80000260127784B9B6D0193019B002B02D0BE
:1024D800202E00D0A5E0E30320D58022734B920282
:1024E8001A658020FFF71CFF6D4D6B6A1B685B0542
:1024F80002D50020FFF714FF01226D4B02A9EA5410
:10250800BB239B00EA5400232C350B752A700693D5
:1025180005A80A7300230022FFF772FFA30418D549
:1025280080230021614A02A85B02136501720170D1
:102538005D49086D184200D0A4E0042003905D486E
:102548000068002800D0A0E00022002302A8FFF7BE
:1025580057FF23050ED50121544B564A19651268B9
:10256800002A07D0504A106D80225202084200D03B
:10257800514BDA64E3041BD580220025B0264B4B6F
:1025880012031A65484B4D4F1D60B60078192C355B
:1025980001F04CFCB542F9D1002302AA13720122C2
:1025A800039202AA137002A800220023FFF728FF53
:1025B80063040ED510223D4B05A81A65002302AA14
:1025C80013730522069202AA137500220023FFF74F
:1025D80017FF230405D58022344B12011A65FFF733
:1025E80019FFA30603D58022304B12061A6563062D
:1025F80003D580222D4B12051A65230603D58022A8
:102608002A4BD2041A65E30503D58022274B92048E
:102618001A65A40503D58022244B52041A6509B013
:10262800F0BD019B3B422AD0204B75109F650123CA
:10263800EDB21E4216D1002E09D1194B204A995CE1
:10264800002904D09E541F4A9B5C174A13608023BC
:102658005B421D43EDB22800FFF74CFE0C3001F041
:10266800E5FB0223012102AA1575117305A806933B
:1026780000220023FFF7C4FE019BBB4301937F00A8
:10268800013622E7022303935EE7096DC90700D5E7
:102698005AE7D36458E7C04698001150100001006B
:1026A800B00800208B0500000000115000301150C8
:1026B800840500003C0E002000201150800B0020F3
:1026C800860500008A050000F0B53C4D85B02868F5
:1026D80000285BD180233A4A5B041360394A3A499F
:1026E80013601E000A689643FBD1384C9C223100C7
:1026F800200003F03CFF802231003548520103F0EE
:1027080036FF092363672B68002B01D10C33A367BD
:102718000123236480239B05E3642E4A2E4B2F4E0E
:102728001A6000232E4D2F4F01933B1F77626B6178
:10273800019B002B3AD03B00803B3362043B2B616A
:10274800019B294ADB019A18B262284A9B18AB619F
:1027580001222800110003F0C2FD019B0837013354
:1027680001932C362C35102BDFD1236DDB0703D5D5
:1027780080221F4B5202DA64002203210520FFF752
:10278800EFFC0520FFF7D0FC00200DE0002103AA94
:1027980003F0E7FA002807DB039B00221979186881
:1027A80003F0F2FA002895D005B0F0BDBA210F4B1E
:1027B8000A4A890093625350CAE7C0463C0E00207B
:1027C80000E0004000F0004008C000400000115048
:1027D80000001050F0FB010090001150B0080020DC
:1027E800800B002084001050400110500001105050
:1027F80000201150014B18607047C046B0080020F7
:102808000121034B034A9954034A98540020704706
:10281800B0080020860500008A05000070B5040095
:10282800FFF768FD051E1CD080231B01620613D12B
:1028380064B20D4A002C07DB02219166026A13601C
:1028480001230020EB7070BD01219166026A1360BC
:102858000020FFF765FDF3E7026A1360802CEFD1D3
:10286800F6E716204042EEE70020115010B50400AC
:10287800FFF740FD00281BD00023026A1360020006
:1028880028321370C169994209D0426A0A4B5340F1
:10289800827892061343A022120613430B6000208D
:1028A80063B2834203DD4021200003F07CF810BDB1
:1028B80016204042FBE7C04600001050F7B506005E
:1028C80014001D000191FFF715FD002844D073B2D4
:1028D800002B41DA802E0DD1214B224A9B5C002B24
:1028E80005D0002D00D02C6000263000FEBD40270A
:1028F800BC4203D80788A74200D927000C3004003F
:102908000022002301F0C4FA002827D103F053FD68
:10291800002802D10530FFF713FC30003A00019976
:1029280002F0FFFF061E0ADB03F045FD002802D176
:102938000530FFF7F9FB002DD7D02F60D5E7200031
:1029480001F074FA03F037FD002802D10530FFF7D3
:10295800EBFB05267642C8E71626FBE70B26F9E7C8
:10296800B008002084050000F7B506000F000092AB
:102978000193FFF7BFFC051E34D073B2002B31DB87
:10298800002E19D1194B1A4A9B5C002B14D008242D
:10299800002F0BD0009C082C00D9082422001549D0
:1029A800380003F0DBFDAB681B19AB60019B002B03
:1029B80000D01C600020FEBD300003F05BF8AA6860
:1029C800841A002FF2D0009B9C4200D91C00002ED4
:1029D80004D1064B06495B5C002BDFD1696A891874
:1029E8002200DDE716204042E5E7C046B008002097
:1029F8008505000000001050F8B50400FFF77AFCC8
:102A0800061E32D063B2002B2FDB002C26D1184DC6
:102A1800184B194FEA5C002A0ED0FA88002A08D011
:102A2800B122D200AC52EC544021200002F0BBFF8E
:102A380001E0EA540020F8BD200003F01BF83B78C1
:102A48007F2BF7D8B122D200B168AB5AFE885B1849
:102A5800B342EFD28842EDD1AB52E5E7200003F054
:102A680009F8B3688342E5D1DEE716204042E2E781
:102A7800B0080020850500000000105049B24368E6
:102A8800102916DC0A290BD00B2910D00C224A4336
:102A98001B689B18802292019B188022120103E078
:102AA8009B68054A9B182D2200201A607047DB6836
:102AB800F7E716204042F9E70430000049B24368BE
:102AC800102916DC0A290BD00B2910D00C224A43F6
:102AD8001B689B18C02292019B188022120103E0F8
:102AE8009B68054A9B182D2200201A607047DB68F6
:102AF800F7E716204042F9E704200000802310B5CC
:102B0800084A5B041360084A94691C4202D01620E4
:102B1800404210BD01609269100018401A42F8D076
:102B2800F5E7C0461830064000000640030010B51F
:102B380008000B2907D8FDF733FB090909091220FA
:102B4800282C2C2C33330120404210BD1A680C234A
:102B58004B439B58134ADB051B0FD056F5E7124A27
:102B68000E201368116803220C0014401142ECD0A7
:102B78000E4A0238022CEED1E7E70D4A042013680A
:102B880012689207E1D00B4AE5E70B4B0B4A1B682A
:102B9800E1E70C234B430A4A9B181B68094ADAE70A
:102BA8000C20D2E7756B001030800040726B00106B
:102BB8003C8000406C6B001048800040656B001042
:102BC800008000405F6B0010F8B506000C007568C7
:102BD80021002800376902F072FF002800D16DE05B
:102BE8000E2C00D96AE02000FDF7DAFA0808080878
:102BF80008082A08080830306A62660021002800A0
:102C08002F68FFF793FF01003000FFF7DDFF0C236B
:102C18006343FB185E68051C5868C0B2FDF71AFFCD
:102C28002849FDF721FD041C300AFDF713FF011C9C
:102C3800201CFDF7A5FB011C281CFDF715FDF8BDA0
:102C480006212800FFF772FF0400C0E70A2C2DD1E7
:102C5800AF6821002800FFF769FF01003000FFF787
:102C6800B3FF061CB868FDF7F5FE311CFDF7DEFD65
:102C7800061C3F203D68FC682840FDF7EBFE011C60
:102C8800301CFDF7F1FC0725061C200C2840FDF739
:102C9800E1FE011C301CFDF7E7FCFF68041C380B43
:102CA8002840FDF7D7FE011C201CC6E7EF68D0E7D7
:102CB8003868FDF7CFFEC2E77868FAE70020BEE77C
:102CC8000148BCE700007F43001B374BF0B5446860
:102CD8008FB0A36822220393E3685F4905A8049391
:102CE8002568276903F03AFC5C4B5D4A1A605D4B26
:102CF8005D4A13601E005D4A12689643FAD10C21A2
:102D0800300000F001FDAE6700F0EAFC0321584BEB
:102D1800DA6B8A43DA635A6C012AFCD103211A6BF5
:102D28008A431A639A6B012AFCD1E269514B0398D2
:102D38005A43636A0093236AA16900F06BFCE26A54
:102D48004C4B04985A43636B0093A16A236B00F0C1
:102D580061FC112105A802F0FCFE730005AA995632
:102D6800C8B2092867D90136112EF6D1C0239B01B4
:102D7800EA1880231B0113603F4A3800AA18136021
:102D88003E4A1430AA1813603D4AAD182B60230040
:102D9800AA25D83319682D012943FFF7AFFE00286B
:102DA80055DB2300DC331B68364938001943FFF72D
:102DB800A5FE00284BDB2300E0331B68002B48D01E
:102DC80029001F2B00D8591938001030FFF796FE3C
:102DD80000283CDB2600E43631682B4D89B22943B4
:102DE800381DFFF78BFE002831DB380031680830CA
:102DF800090C2943FFF782FE002828DB234B1A4AD7
:102E080013601A4B1B68DB43DB01DD09002BF8D18B
:102E18002900606902AA02F0A4FF002807DB029BD0
:102E28002A001979186802F0AFFF002801DA831C1C
:102E38000DD100200BE0090161180B6C00934B6C5D
:102E4800CA6B896B03F09AF900288CD116380FB039
:102E5800F0BD0F49B8E7C0468B69001000E000409C
:102E6800BFCDFBFEFE7F3C0000F0004008C00040E4
:102E780000800040001BB7000C3000001830000034
:102E88002430000000B0FA0000009696FFFFFF0112
:102E9800A10A000010B5084803F0CEF9002808D0B0
:102EA800064C2000FFF7FCF92000FDF7CFFE0020BC
:102EB80010BD13204042FBE740670010C92E0010E8
:102EC80070B50400074D0A2804D1AB680D2128000D
:102ED8005B689847AB6828005B68E1B298472000B8
:102EE80070BDC04640670010D0231B061B685A42BD
:102EF80053412F225B429343064A9B181A001068DD
:102F0800002804D10432D11A0C29F8D970470120BD
:102F1800FCE7C04650410140F7B50369070001933B
:102F2800D0231B061C68002563425C412F236442A2
:102F38009C43174BE4180722EB0808339B001B59E6
:102F48002A409200D3400F22134203D101351E2D8F
:102F5800F1D1F7BD0F21280000F092FC019B5968C0
:102F68000029F3D00123AB400E6800930029EDD06F
:102F78008B68009A00981A40034202D038004B68C8
:102F88009847331E00D0336831001E00EEE7C04674
:102F980030410140F8B50D00141E066910D111002A
:102FA800280000F0E5FB284BAD00EB181A688023D9
:102FB8005340C0221340254AAD182B600020F8BDAD
:102FC80001275209210928003A40394000F0D0FB76
:102FD8000521280000F0B4FB802321005B02194082
:102FE8001C421AD0D023AF401B069F62A303E5D52D
:102FF80001200300F268AB40A10719D51A43F2601B
:10300800D0223169120665070BD519433161A40C2A
:10301800936104420AD05362D0E7280000F05EFCB6
:10302800E4E799433161E40C5361F2E79362C5E741
:103038009A43F260D0221206210301D55361EAE7D0
:103048006403E8D59361E6E704C0014004D0014079
:10305800436803491A68936B0B4093637047C046F3
:103068007FF8FFFFF0B5436887B0049303690291C6
:10307800059203931B7A0500002B00D09FE0002ADD
:103088000BD00121049B1A68136B8B4313634368AD
:103098000F311A68D36A8B43D362EE226B681B68C0
:1030A800DC6A9443029A1279012A06D0022A16D0C1
:1030B800002A04D0862040426AE002221443029A81
:1030C8005279012A03D0032AF4D105321443029A13
:1030D80090790328EED8FDF763F80604181A06223B
:1030E800ECE720221443029AD279002A11D0012A4F
:1030F800E0D18022196BD2010A431A636B681A68FF
:103108008023116B1B020B430CE04022EAE760228C
:10311800E8E71A6B2B490A401A636B682A491A6850
:10312800136B0B401363039B40267642F717D8684E
:10313800029B810E1A68800100231201FDF700F935
:1031480000900191009A019BB6185F41002F34D17D
:103158001E498E4231D8019B69689806009B096810
:103168009B0903434B623F216B68009A1B680A4026
:103178009A62BFF35F8F6B6802991B680398DA6ADB
:10318800DA626B6808221B68DC6203F0E7F9380032
:10319800059B002B0FD0049B1B7F002B05D16B6870
:1031A8001A681023D16A0B43D3626B681A6801232B
:1031B800116B0B43136307B0F0BD16207BE7862025
:1031C8004042F8E7FFBFFFFFFF7FFFFF80FF3F00A0
:1031D800F7B5456804000669A868002861D1286920
:1031E800002867D1377A002F32D13900686801AAE0
:1031F80002F0B7FD00285CDB019B3A0019791868DA
:1032080002F0C2FD002854D16B6A002B00D0984709
:10321800012163681A68136B8B43136363680F316A
:103228001A68D36A8B43D3622B6A002B53D10022CE
:1032380031002000FFF716FF63681A6810235363F4
:103248002A7F002A04D162681268D16A0B43D362CC
:10325800002263681B689A636368264A1B685A647D
:10326800337A002B13D1626812689364BFF36F8FAF
:10327800022163681A68136B8B43136363681A68C7
:10328800C023116B9B000B431363BFF36F8FAB69B4
:10329800200098470123327A3374002A21D0002075
:1032A80007E0E9688368DB68002B20D0984700288E
:1032B80095D0FEBD836869691B68002B00D09847CC
:1032C80032002869696983680C32DB68002B00D1F9
:1032D80088E7984786E72000F16898470028A6D035
:1032E800E7E762681268116B0B431363D7E758204E
:1032F8004042DEE7FF07000070B580251049114BFA
:103308008C681B680E6810488A686D02002C08D10A
:10331800002A11D11A002E4209D100681818801A03
:1033280070BD002A0AD02E4201D1A242F5D9046804
:10333800E41804600968F0E71C00F4E71A00F2E7F3
:1033480010E000E0580E0020540E00200020094A2A
:10335800136A1B021B0A1362074B084A1A60084BC0
:10336800084A1860084B5A600722986019680A438F
:103378001A60704700ED00E0580E0020D4300000BD
:10338800540E0020D330000010E000E0F8B500240F
:10339800FFF7B2FF0F4E230031680F4D0A0028686F
:1033A800696880185941286069600C4D34600C497F
:1033B8002E686F68801BFCF7FDFE09492300414316
:1033C8000A0092197B412A606B6001F03BFCFEF712
:1033D800B3FDF8BD540E0020C0040020B80400203E
:1033E800D4300000F0B53B4B3B4D87B000295FD08F
:1033F800421C08D101212A688A432A60FF2212064A
:103408001A6007B0F0BD1B680393002302930128DC
:1034180053DCEFF31083059372B6FFF76DFF0022BC
:103428001100AB6804932D4B1E685F6836184F4136
:103438003000390018605960294B009601971A60CE
:10344800284B1C68009B1B1B93423DDB264F0298B0
:10345800264A78438018C0183900FCF7ABFE009B59
:103468007843E41A80232018DB00984200D2180021
:103478001F4B984200D91800164B1849186001389C
:10348800AB6868600020A860049AD41A9A421ED2D9
:10349800039D621903000C684D6812196B410A609C
:1034A8004B60059B002BACD162B6BFF36F8FA8E7CA
:1034B8001B680393431CA8D10E480F4B984200DDAC
:1034C8001800431E0293A4E78020C000D4E722001E
:1034D800E0E7C046580E002010E000E0C0040020DD
:1034E800540E0020B8040020D4300000D33000006F
:1034F80084C6FF003D0500003E05000070B5EFF3EF
:10350800108572B6084A094B14681B68E41AFFF75D
:10351800F3FE0019002D02D162B6BFF36F8F044984
:10352800FCF748FE70BDC046C0040020B804002067
:10353800D430000070B5EFF3108572B6054B1C68E7
:10354800FFF7DAFE2018002D02D162B6BFF36F8FA5
:1035580070BDC046C0040020F7B50C244443019355
:103568002A4B0092E4186368089A05000E009342FB
:1035780000D26260C0232F1F9B01FFB2E318012F06
:103588001BD8012E19D103221A60A3683342FCD03C
:10359800009B22685B015340E022134080225201C5
:1035A800A21813600321236873400B4013600123A2
:1035B800B340A2681342FCD01BE0802212011A60BB
:1035C800134BAA00D158002907D05869FCF7F2FD1F
:1035D800431C032058430338FDD2009B22685B013B
:1035E8005340E022134080225201A2181360012F99
:1035F800D8D9802380229B01E31812011A60089B06
:10360800019A6360024BAD00EA50F7BD00800040AC
:103618005C0E0020F8B51700040029480D001E00B4
:10362800FCF7C8FD274B0100FA18274B9A4201D92D
:1036380002F06FF93800FCF7BDFD02009823103A3C
:103648005B009A42F4D8731E062BF1D8069B013B07
:10365800062BEDD8069B32041E0323681643002B65
:103668000FDA3F2223681340AB420AD1A3681B0537
:103678001B0D834205D1EE22E368D2021340B34208
:103688001CD0124B1249E21853425A4101230C3202
:103698009340104A1360104A13601F000A6897434A
:1036A8003A1EFAD10D4B2132E3182560A0601A604A
:1036B8002268002AFCDA0822E6601A60F8BDC046D3
:1036C800001BB70080E84BD380F8A9320040FDBF4B
:1036D80008C0004000E0004000F000400430000056
:1036E800AA22064B12011A602F220549DA60054A00
:1036F80011605A68002AFCDA7047C0460040024050
:1037080000B0FA00006002408023024A9B000B438D
:10371800D362704700800540802310B5DB05186828
:103728000649030B02059BB2120D8A4201D002F032
:10373800F0F8022BFBD1000F10BDC046270900008E
:1037480010B5084B8200D3181C6840236340C0247E
:103758002340054CC00012191360044BC018416087
:1037680010BDC04604C0014004D0014000400140E3
:10377800064B8000C3181B68C90092000A435A40D0
:103788000C231A40024BC0180260704704C0014065
:1037980004D00140064BC000C3181B6809075940F4
:1037A800C0239B051940034BC01801607047C046F1
:1037B8000440014004500140064BC000C3181B6878
:1037C80009045940C0239B021940034BC0180160EB
:1037D8007047C0460440014004500140064BC000F9
:1037E800C3181B6809025940C0239B001940034BAA
:1037F800C01801607047C0460440014004500140B1
:10380800064BC000C3181B6809035940C0239B011D
:103818001940034BC01801607047C046044001407E
:103828000450014002238000002903D0024A801876
:1038380003607047014AFAE704E0014004F00140E0
:10384800054B8000C3181B68594001231940034BDE
:10385800C01801607047C04604C0014004D0014050
:10386800054B8000C3181B680901594030231940D3
:10387800024BC0180160704704C0014004D00140E9
:103888000722C308104080008140024A3C339B0055
:103898009950704700400140F8B5D0231B061C68BA
:1038A800050063425C412F2364429C430A4B0F008E
:1038B800E4181600FFF7E4FF07232B40ED089B00F0
:1038C800AD009F4064198023002E00D1C0239B01C6
:1038D800E4182760F8BDC04630410140402380000D
:1038E800002903D0024A801803607047014AFAE7AA
:1038F80004E0014004F0014070B5EFF3108572B6A2
:10390800064B9C6802F0A9FC002D02D162B6BFF3F9
:103918006F8F2000FEF7A0FB70BDC046840F00200B
:10392800F8B501270D4E83009D59013084003359A5
:10393800AB4200D8F8BD2868002807D0084B984249
:1039480006D3084B984203D2036898470435EEE73C
:10395800037F3B42FAD102F083FCF7E7D46A0010F8
:10396800A0670010BC670010012270B5234B03202C
:1039780086B01A70FFF7D4FF01F0E4F90420FFF7CE
:10398800CFFF1F4C26001F4DAC420ED300F02AFE7D
:10399800AE4220D300F036FEFDF726F901211A4A7F
:1039A800137B8B43137306B070BD636A0593236A58
:1039B8000493E3690393A3690293636901932369F9
:1039C8000093E368A2686168206800F0FFFB236841
:1039D8005C653034D7E7B26AF36A511C01D1591CCF
:1039E80005D011003068194303D100F0E7FE3036E6
:1039F800CEE70649183001F095F8F8E7CD0F00201A
:103A08008C6800108C68001038050020976400103E
:103A180010B5034A03480021121A02F039FC10BD00
:103A2800D00F0020B803002070B5702601250400CF
:103A380046430102114880220918002086B00495E7
:103A48000E350395053565430D4B059002900190A1
:103A58000C48F6182D180C4B30000095520000F059
:103A6800B5FB0422737B2C74934373730134074BA7
:103A7800E402E418EE606C6006B070BDD01F002050
:103A8800C8040020840F0020A9620010D01700206D
:103A9800F0B5002087B0FFF743FF204B83F3088879
:103AA8001F49204B0A6A00251A40C0231B041343F0
:103AB8000B62FEF7A5FAFEF7BDFB1B4800F0ECFB16
:103AC80002F0B9FB0120FFF72BFF0220FFF728FFC8
:103AD80000F0C8FD154C164B80225C61154B164E44
:103AE8000593012315490493D20033002000039560
:103AF80002950195009500F069FB04220700637B9D
:103B080020009343637302F09BFC2800FFF78CFFAF
:103B1800320039002000FEF771FBC046D01F00209C
:103B280000ED00E0FFFF00FFA80500203805002099
:103B3800840F0020CE6B001071390010D0200020B7
:103B4800F0B50F00010085B0083104000391EFF3D0
:103B5800108672B6006AE168884234D22568AC42A1
:103B680019D0002D17D0280002F0A1FB280018302A
:103B780002F0C2FCA26800243900286902F0EEFCB9
:103B88002800EC6602F05CFC0398310000F0FEFCB3
:103B9800200005B0F0BDA2683900E06902F0DEFC43
:103BA800E369A2689B186269E361934201D12369C2
:103BB800E3610020236A01332362002EE9D162B653
:103BC800BFF36F8FE5E7110019430AD00649039840
:103BD80089680F61009231002200019300F046FCD1
:103BE800D7E723204042E8E7840F0020F7B5040018
:103BF800270008000837EFF3108672B6216A0029FB
:103C080038D0A268A16902F0A9FCA369A2689B1830
:103C18006269A361934201D12369A361236A25687C
:103C2800013B00202362AC4234D0854232D02800C8
:103C380002F03DFB2800183002F05EFCA268E06943
:103C4800296902F08BFCE369A2689B186269E36149
:103C5800934201D12369E361236A28000133236277
:103C68000024EC6602F0ECFB3800310000F08EFC1A
:103C78002000FEBD110019430AD00949896808616E
:103C88000092310022003800019300F0EFFBF0E7CA
:103C980023204042002EECD162B6BFF36F8FE8E7D5
:103CA800840F0020F0B585B004001F000392EFF3E5
:103CB800108672B6C368354A002B0ED080689168AA
:103CC800884217D0039B3B431AD1002E02D162B61B
:103CD800BFF36F8F102040420AE09168897B49B298
:103CE8000133E36093682161A360002E04D00020B3
:103CF80005B0F0BD2169F3E762B6BFF36F8FF6E751
:103D08000E23897BC35649B2994200DD19000A0087
:103D18007F3201DA7F21494200258B4202DD02F021
:103D2800D3FA05001A4B22000293039B3100029834
:103D38000093019700F09AFB0028D8D0EFF3108683
:103D480072B6A068002819D0236821699C420BD05C
:103D5800002B09D09B7B5BB2994200DD19000B0058
:103D68007F3301DA7F21494202F0AEFA002805D0FC
:103D78003100029800F00AFC0B20ACE7002DF7D1C7
:103D8800002EF9D162B6BFF36F8FF5E7840F0020DC
:103D9800CE0F0020F8B583680500002B3CD0214ADF
:103DA800926893423BD1C368012B03D9013BC3609E
:103DB8000020F8BDEFF3108772B60169806802F041
:103DC80083FA2C68A54208D10023AB60EB609F42C0
:103DD800EED162B6BFF36F8FEAE7002CF4D06268C9
:103DE8002368002613605A6002222000637B266045
:103DF800934363736660A660183002F07DFB0E2360
:103E0800AC60E35620002B61E66602F019FB39002E
:103E1800054800F0BBFBCBE716204042C9E701206C
:103E2800FBE7C046840F0020CE0F002070B5EFF3EB
:103E3800108572B60468A0421AD0002C18D06268A7
:103E48002368002613605A6002222000637B2660E4
:103E5800934363736660A660183002F04DFB200040
:103E6800E66602F0EDFA2900084800F08FFB70BD05
:103E78008268C3689B1A591E8B419B188360002D6A
:103E8800F5D162B6BFF36F8FF1E7C046CE0F0020C1
:103E980013B50400EFF3108172B68068002808D0CB
:103EA8000138A060002902D162B6BFF36F8F0020ED
:103EB80016BD1000184307D1002902D162B6BFF31E
:103EC8006F8F10204042F3E70092019322000248CE
:103ED80000F0CCFAECE7C046CE0F0020F0B50500A4
:103EE80087B0EFF3108772B62E006C6F8C36002CFB
:103EF8001CD10221300002F0FFF9002866D02C0006
:103F0800843400220121200002F0D8FA0028F8D1D8
:103F18000023029301225242D317009201932A00F0
:103F280039007C323C4800F003FDDAE72368AA6FC9
:103F38006B67944200D1AB67022233681343336046
:103F48000423E2689A43033B1343E3606368002F4A
:103F580047D020009847EFF31083059372B6E368C3
:103F680001211A008A43100908423ED1E260E36841
:103F78009A071AD502229343E360284B1868002851
:103F880013D00021026800280FD04768BC423AD1FC
:103F98000268002931D159681A60814200D15A60FB
:103FA800002303600830FFF741FF02223368934380
:103FB800059A3360DB05DB0F002A02D162B6BFF336
:103FC8006F8F002B8DD100F057FB8AE73368DB0633
:103FD8009ED53060002F02D162B6BFF36F8F07B055
:103FE800F0BD62B6BFF36F8FB3E711229343E3606E
:103FF80020001030FFF71AFFB9E70A605A688242BA
:10400800CED15960CCE79446002A01D011688C467D
:10401800010010006246B6E7CE0F0020A40F002072
:10402800F7B5C3680D00590801220F0004001740B6
:1040380011424CD19B0813421ED12B68002B01D191
:1040480083682B600127E3683B4202D0A368FF190D
:104058002B602E68002E48D03100254B8C319A6891
:10406800336F01919A4222D00A68012193080B40CC
:104078000A4204D113277F4200232B6015E0002B4E
:1040880025D1D3080B40002B21D100232360B36F27
:10409800002B27D1B4677467300002F039F9042384
:1040A800E2681343E3602B68A3603800FEBD02F0AA
:1040B80082F9019B01221B6800280AD1D908114006
:1040C8001342D7D00029E0D09B081342DDD1102736
:1040D800D1E7990811401342CCD00029F7D1DB0869
:1040E8001340D0E71C60B467D6E71627C3E7C0467D
:1040F800840F0020F0B5040000206067A06720004E
:1041080089B07C30261D0E9DE067F067083000609E
:1041180040600120002D07D0287946427041FF26D3
:104128004042B0430230FF3026008C363060012612
:104138007642F7170696079700260F4803930496CA
:104148000300029620000196009400F079F8B54229
:104158000CD02968B14202D0200002F032F96B7904
:10416800002B03D00123227B13432373200000F08C
:1041780025FB246709B0F0BDE53E001073B50C00BF
:104188000190EFF3108572B6CE681E2100200E4212
:1041980007D119001143814209D1200001A9FFF775
:1041A8003FFF002D02D162B6BFF36F8F76BD0821A5
:1041B80020003143E16001991030A162024900F00A
:1041C800B1FC0120EDE7C0462B630010F0B587B0C5
:1041D8000593030058338365C365109B0727037352
:1041E800042300250732BA434373D2190F9BBA43FD
:1041F80083738B180E0085601900C5738561C561CE
:1042080004000493FDF77CFE049BC019B8431F1AF1
:104218000E9B3A0002930D9B310001930C9B2000EA
:104228000093059BFDF7D4FF044B65659B68AB4283
:1042380000D01B6E3800236607B0F0BD840F002045
:1042480070B50400002086B005900E98119D04906A
:104258000D98109E03900C9802900B9801900A9864
:1042680000902000FFF7B2FF2B00721C01D1013330
:1042780005D02B00334305D1200000F09FFA200021
:1042880006B070BD200032002B000249183000F043
:1042980049FCF4E7976400100223FF33838100236D
:1042A8000366014B98607047840F00200B21084A71
:1042B80049429368D9669866802306495B05486831
:1042C80003434B6062B6BFF36F8F9368D86E704735
:1042D800840F002000ED00E00D2370B5C356427B2B
:1042E800002B38DBD30636D180235B4213431B4CAB
:1042F8004373A3691A49E2698B4207D1016042609E
:104308001060E06111E09A42F8D01B68002BF5D0EC
:104318000E250E2645579E57B542F4D0AE42F2DD23
:104328005A680360426010605860A5698D4201D0E8
:10433800002D00D1E568A3685A7BD20605D1DA8939
:104348007F2A02D9AA69002A06D0AB4202D02800E7
:1043580000F030FB656170BD6361FCE7840F0020ED
:104368009C0F00200D2270B582560500437B002A61
:1043780004DA7F221340437302F026F80D4E0E4AEA
:10438800B469B368944201D0002C00D1F468AB4200
:1043980008D05A7BD20605D1DA897F2A02D9A269C8
:1043A800002A05D0A34202D0200000F003FB23001E
:1043B800736170BD840F00209C0F002010B5511C44
:1043C80001D1591C03D00249183000F0ABFB10BDD5
:1043D800976400100D2270B582560400437B002AB2
:1043E80004DA7F221340437301F0EEFF8023627BDF
:1043F8005B4213431B4D6373AB691B49EA698B42EC
:1044080007D1216062601460EC6111E09A42F8D033
:104418001B68002BF5D00E200E2620569E57B04262
:10442800F4D08642F2DD5A682360626014605C60F2
:10443800AE69AB688E4201D0002E00D1EE68A3426F
:1044480008D05A7BD20605D1DA897F2A02D9B26907
:10445800002A05D0B34202D0300000F0ABFA330096
:104468006B6170BD840F00209C0F002070B50C009C
:1044780011000A4A0A4B90681860EFF3108372B66D
:104488009568280001F0B3FF049A059B2800FFF700
:1044980095FF2000FFF70AFF70BDC046840F00207B
:1044A800AC0F0020F7B50400EFF3108772B61F2297
:1044B800437B1A4050425041C0B201904DB2002A8D
:1044C8003CD17F3213406373200001F07DFF8023CD
:1044D800627B5B4213432B4EA5736373B3692A490E
:1044E8008B4229D1F269216062601460F4610FE0A7
:1044F8009A42F8D01B68002BF5D00E20185685423A
:10450800F6D0A842F4DD5A682360626014605C60EB
:10451800B4698C4201D0002C00D1F468B3689C4285
:1045280002D0200000F046FA7461002F02D162B672
:10453800BFF36F8F0198FEBDF269DCE79B071FD5BB
:10454800A668200001F040FFA57333689E4209D198
:104558007368266063601C607460E6E77268934263
:10456800F6D01B68002BF3D00E229A569542F5D050
:10457800AA42F3DD5A682360626014605C60D4E785
:10458800A573D2E7840F00209C0F002010B50029E6
:104598000AD1EFF30580002807D1064B9A685B69BA
:1045A8009A4202D0FFF782FE10BD62B6BFF36F8F4A
:1045B800FAE7C046840F002010B500280AD1EFF3AF
:1045C8000580002807D1064B5A699B689A4202D099
:1045D800FFF76CFE10BD62B6BFF36F8FFAE7C046F7
:1045E800840F0020EFF3108172B6054B9A68D37BD5
:1045F800013BD373002902D162B6BFF36F8F7047B6
:10460800840F002070B5EFF3108672B6134DAB68B7
:10461800DA7B0132DA73AC69114A944201D0002C7A
:1046280000D1EC685A7BD20605D1DA897F2A02D9F3
:10463800A269002A05D0A34202D0200000F0BAF9EE
:1046480023006B61002E02D162B6BFF36F8FEFF3C8
:10465800108072B6FFF7B0FF70BDC046840F00200F
:104668009C0F0020024B034A9A61DA617047C046EA
:10467800840F00209C0F002070B5EFF3108572B6F0
:104688001C4CA168E3690A68CB1A581E8341496823
:104698005B420A6051601340E169A268002B05D1B2
:1046A800154B516013600A60E2610CE00E200E2683
:1046B80010569E57B04218D0864216DD59681360CE
:1046C80051600A605A60A6690B4B9E4201D0002EC9
:1046D80000D1E668A3689E4202D0300000F06AF973
:1046E80028006661FFF7E2FD70BD8B42D8D01B68D9
:1046F800D4E7C046840F00209C0F0020F8B50300C3
:1047080007000C000B4303D1FFF7B6FF0020F8BDEC
:10471800EFF3108672B6134D134BA8681860FFF7B5
:1047280021FEA86823003A001049183000F0FAF971
:104738000423AA680400517B30000B435373FFF72E
:10474800B5FDAB689A6A002AE0D18022DB6A1206BE
:104758009342DBD101F0F6FE201AC343DB17184061
:10476800D5E7C046840F0020AC0F002097640010E6
:1047780070B504000D00FFF7C1FF03002000621CA4
:1047880001D1013513D01800D91709220023801848
:104798005941002901D109280AD904290AD802D186
:1047A80003000B3306D80A220023FBF7C9FD70BDAE
:1047B8000800FCE70048FAE7FFFFFF7F70B5040038
:1047C800EFF3108572B60426437B33420DD01830C0
:1047D80001F092FE637B2000B3436373FFF77CFD17
:1047E80029000548FFF7D2FE70BD002DFCD162B646
:1047F800BFF36F8FF8E7C046CE0F0020014B9868D3
:104808007047C046840F0020F0B5037B85B00400D4
:104818000393EFF31083019372B6019B029308236D
:10482800427B1A4207D0019B002B02D162B6BFF32C
:104838006F8F05B0F0BD1900114348B2002854DB52
:104848006173A368002B02D0200001F0C5FD200091
:104858002600183001F050FE5836A56DAE4201D042
:10486800002D4AD12F4F0025BB689C4204D1EFF39D
:1048780005856A1E9541EDB2BE692B4A964201D064
:10488800002E00D1FE68B34202D0300000F092F84A
:104898007E61002D02D02548FFF7FEFCBB689C42D4
:1048A80038D1EFF30583002B34D1237BDB070FD5F9
:1048B800019B002B02D162B6BFF36F8F62B6BFF3C4
:1048C8006F8F0423181C02DFEFF3108372B6029374
:1048D8000298FFF7EBFC039BDB07AAD562B6BFF390
:1048E8006F8F0423181C02DFA3E77F210A401343BC
:1048F8002000637301F068FDA3E7280001F06CFD58
:104908002800183001F0F8FD00232800EB66FFF7B7
:10491800E3FCA2E7019B002BDDD162B6BFF36F8FEA
:10492800D9E7C046840F00209C0F0020A80500206E
:1049380073B5069D079E089C00950196FFF796FDA6
:10494800002C03D0024B9B681B69236076BDC046D0
:10495800840F00200121044B044AC01A044BC010E4
:104968004343D1547047C04618060020CE0F00209C
:10497800ABAAAAAAC289030000207F2A11D80A4A32
:10498800106800280DD00E21084A595612680020D8
:10499800914206DB5A7BD20603D10548181A431EFA
:1049A800984101231840704750010020B00F0020A3
:1049B800C804002070B518240C4B05001E7C0C4B55
:1049C8007443E418200001F097FD0022094B2800E9
:1049D8009A55FFF7CFFF002807D0074B20001A6829
:1049E8000649013AD31700F09DF870BD840F0020E6
:1049F80018060020CE0F0020500100205D4900104D
:104A080070B5EFF3108572B6104A114B94681868A8
:104A1800A04207D1FFF7CEFF002D02D162B6BFF347
:104A28006F8F70BD00211960127C0A4B9B5C8B4212
:104A3800F2D02000FFF79EFF0028EDD0637BDB0655
:104A480002D12000FFF7C6FC2000E3E7840F002016
:104A5800AC0F0020CE0F00200648074A10B5121AE6
:104A6800064901F019FC064A06480749121A01F0DE
:104A780013FC10BD00000020B8030020286C0010B3
:104A88000000002000000020286C0010024B18686D
:104A9800984200D1002070475401002070B50600EC
:104AA800FFF7F4FF002810D0026943693400F517B6
:104AB800121BAB41002B08DC03D1802109068A4276
:104AC80003D2D843C017104070BD0148FCE7C04668
:104AD800FFFFFF7F002010B5034B1B68834201D105
:104AE800FEF70CFD10BDC046B40F002030B50028FD
:104AF8000ED00B4B5B6898420AD00168002907D09A
:104B08000A694B690469456912196B410A614B616D
:104B18000368426813605A6000230360436030BD35
:104B280054010020F0B5040015001E0085B0531C88
:104B380002D1731C00D17CE0A160EFF310830393D2
:104B480072B6002E26DBFFF7C5FF0021009001207A
:104B580040197141009AD31712184B413649226106
:104B680063610868496812184B411E00150001234B
:104B78000293FFF78BFF0700304B9C465B6801935D
:104B8800002F1DD163462360019B63601C60634650
:104B98005C6027E0284B1868596802225242D317F4
:104BA800121A8B41521BB3411100002B04DC01D1B6
:104BB800002A01D101210023636121610023D7E785
:104BC8003869796922696369994202DC28D190427F
:104BD80026D9801A99417B683861796163602760BA
:104BE8001C607C60FFF752FF84420FD1144B1B6896
:104BF800002B0BD1029B002B02D1FFF76BFF00901B
:104C08000098FFF74BFF0021FEF7ECFB039B002BFE
:104C180002D162B6BFF36F8F2800310005B0F0BD36
:104C2800121A8B4122616361019B9F42AAD03F689F
:104C3800A6E700250026EFE73006002054010020F3
:104C4800B40F0020F0B587B0EFF3108372B601936C
:104C58002F4B1860FFF71AFF2E4F04003A687B6845
:104C6800029203932A4B9C461D6800280FD0426984
:104C78000669EB179A4202DC24D1AE4222D9190008
:104C8800226963692800121A8B41226163610298C4
:104C980003992A00EB1712184B4100243A607B60F5
:104CA800634620001C60FFF7F9FE2100FEF79AFB1F
:104CB800019BA34202D162B6BFF36F8FFFF7A0FE3C
:104CC80007B0F0BDF31704960593049A059B029864
:104CD800039980185941002300220E4D2261636117
:104CE800286069602000FFF701FF019B002B02D1BB
:104CF80062B6BFF36F8F2000A3689847EFF3108365
:104D080072B6034A019313689B1B1360A2E7C0465F
:104D1800B40F00203006002010B5EFF3108472B6EF
:104D2800FFF7D8FE02000649C317086849688018CB
:104D38005941002C02D162B6BFF36F8F10BDC04637
:104D48003006002010B5024800F081FB10BDC046B7
:104D5800D36B001010B5064C064B9C4201D30020C3
:104D680010BD2000A268616801F0F0FB1434F3E77D
:104D78008C0200208C0200200123802213B5054CF0
:104D88000549064800945B42D200FFF7B3F90020BA
:104D980016BDC046EC6A0010D0240020380600205A
:104DA800F0B5436893B003900893837815009B0788
:104DB80000D4F8E0002301930E78002E6AD0252E47
:104DC8000DD04B1C0993019B013301930399089B58
:104DD800F0B29847002800DADFE00999ECE74E784E
:104DE8008B1C0993252EEED0002304211C00099A60
:104DF8000293079309921F2C2ED8300020381028D0
:104E08000AD8FBF7CDF91D0909270909091E09095F
:104E1800091B0925090918003300303B092B29D93A
:104E28002A2E32D108CD600622D4002B29DB20207F
:104E38000793044305E001231C4302E002231C43BB
:104E48000C43099B01321E78002ED3D109922DE024
:104E58000823F1E71023EFE77F2C1ED83300303BFF
:104E6800092BDDD8600605D50A20029E7043C318B9
:104E78000293E6E70A20079E7043C318079320238E
:104E8800DAE75B4207932823D6E72E2E05D1402385
:104E98001C42D1D0019813B0F0BD6C2E2DD027D86C
:104EA800682E31D06A2E32D04C2E30D0029B002B87
:104EB80003DA40239C4300230293202333431A0040
:104EC800653A022A01D9612B24D10722EB1D9343AD
:104ED80008331D00AB4F0292240753D5019A029B59
:104EE80016009C18B4424FD1079B029A9E1A82E181
:104EF800742EA6D07A2EA4D0D8E780231C429BD04B
:104F080080208000044397E780235B00F6E7A02316
:104F18009B0091E730006338122800D9E3E0FBF7E3
:104F28003FF90A46E2E2E2E246E2E2E2E2E2F3DDE9
:104F3800E2E211E2AD0004CD0CAB1A7001230CAF14
:104F48000293C9E780CD002F00D18F4F02996306E5
:104F580001D401214942380001F011FB0290BBE75E
:104F680020200399089B9847002816DB013C029BE8
:104F7800A342F5D3079A019B944663441B1B0193F4
:104F88000794ABE7079CF2E7019B0399FB1A985D2E
:104F9800089B984701360028A4DA039B9A780423D3
:104FA8001343039A937001235B42019372E723062C
:104FB8003FD5A30537D50722073595432F000CCFDA
:104FC80004920593102325009D43059B002B3ADA94
:104FD8000499059A00244B42944104930594802334
:104FE800DB001D43ADB20CAC0A23049805992200DE
:104FF80001F0D0FA041B6B0665D501232A009A43F9
:105008001300029AA24200DCA4E0002E00D19CE02A
:105018001022290011400B91154200D09CE0029A01
:105028001D0006921EE02F0008CF0493DB1705939E
:10503800C8E72F0008CFE205F7D5A20501D55BB276
:10504800F3E71BB2F1E7049B059A1343CBD1630640
:10505800C9D5029B002BC6D111339C43029B250066
:105068001C0006932A00494B1A400B921D4277D028
:10507800069B0133069300230B9371E010239C4396
:10508800063B9C46802322001A4006921C4242D0CE
:1050980021008133FF3319401C4239D00722EB1D10
:1050A80093431F0003CB083703000B4346D1250069
:1050B80016339D43630644D5029B002B41D1173319
:1050C8009C432500029C10232A001A400B921D4283
:1050D80056D0631C002E42D022003FE010237826D1
:1050E8009C461C43CEE7782B04D110229B1B1A4305
:1050F8009446C7E725200399089B9847002800DABB
:105108004BE7019B023360E6082300269C46B9E77B
:105118002F0001CFC8E72F008022210008CF5200BE
:10512800180011401442BFD0802221009200114083
:1051380098B21442B8D00699D8B2B5E706239C4372
:1051480025000CAC6346220052E711239D43029BC5
:10515800069387E71D00B6E71D00029A931C069385
:105168002B072AD4EB0709D5079B069A029493428A
:1051780004DD9B1A1B190293079B0693069B10E0FC
:1051880006946FE7206C0010196C001006040000EC
:1051980020200399089B9847002800DAFDE60A9B1F
:1051A80001330A930A9A079B9342F1DC069A019B02
:1051B8009B1A0A9A9B18019306920B9B002B25D0E9
:1051C80030200399089B9847002800DAE5E6019B00
:1051D800002E12D101330193019E029B019A9B1864
:1051E8009B1BA34220DC2500002D25D13D00079BF9
:1051F800069AA4199E1A019431E002330193F0B281
:105208000399089B98470028E6DAC6E6174B1D4223
:10521800E2D02020AB0700D50B306D0500D52D203E
:10522800019B01330193EBE730200399089B01367A
:1052380098470028D1DAB0E60CAB013DE85C039949
:10524800089B98470028CFDAA7E6019B2020013366
:1052580001930399089B9847002800DA9DE6019A74
:10526800A3199B1A002BF0DCB7E5C0460604000022
:1052780070478023C900411880681B02984202D3F6
:105288009200505870475200505AFBE710B58024DE
:10529800C900411880682402A04202D392005350EA
:1052A80010BD52005352FBE710B50122FFF7E1FF92
:1052B800400810BD10B58024C9004118806801233A
:1052C8002402A04208D34868002A02D003434B6056
:1052D80010BD98434860FBE74888002A02D0034382
:1052E8004B80F5E798434880F2E710B55300012258
:1052F800FFF7CCFF10BD8022042310B512029042A4
:1053080000D3DB180833DB080131C81AFAF7FAFFB3
:105318001F23181A10BDF8B50D0004008668FFF7A2
:10532800C3FF802301001B029E4201D3012819D02C
:105338003000FFF7E0FF8300E3181E69002E12D14A
:1053480001218140E26820000A43E260290002222C
:105358001D612B00FFF79AFF2B0003222900200074
:10536800FFF794FFF8BD022231002000FFF781FF0C
:1053780007000300022229002000FFF787FF3300FF
:10538800032229002000FFF781FF2B0003223900A8
:105398002000FFF77BFF2B0002223100DFE7F8B582
:1053A80080230824DB029A4200D2043C072300270A
:1053B800141BCD1D0C199D439C43641BE408056018
:1053C80021002000AC60EF60FFF795FF431D9B00B4
:1053D800DE1D3A00F608013001DB103B1A002800F8
:1053E8000021103001F0C3F8320028000021FFF737
:1053F8007CFF002328001A001900FFF747FFA71BAE
:10540800280001220021FFF755FF3A00310028004B
:10541800FFF76BFF3300310028000022FFF736FF4B
:10542800280021000022FFF760FF3B002800210030
:105438000022FFF72BFF280001222100FFF73AFF87
:1054480031002800FFF767FFF8BD002070470FB450
:1054580007B504A901C90191FBF7FEFB03B008BC1D
:1054680004B0184770B506000C888888241A30697B
:10547800A4B285B2844201D3641BA4B22D1BA8B286
:10548800984200D9180033681B1913600B881B1841
:105498000B8070BD70B5838984880D00E41A036998
:1054A800A4B21B1B934200D913002A00011DFFF769
:1054B800D9FF70BD10B50C00C38841895B1A9BB237
:1054C800934200D91300010022000A31FFF7CAFFF6
:1054D80010BD10B54B880C88E41AA4B294420ED3C0
:1054E8009A1892B28B884A800A800069D21A92B2BE
:1054F800824201D2002010BD1B188B80FAE71620CB
:105508004042F8E7F0B50E001500002785B001907D
:105518002A00019803A9FFF7BDFF041E09D0310036
:105528002200039801F01AF83F192D1B3619002D97
:10553800EED1019B3A001800191DFFF7CAFF380089
:1055480005B0F0BDF0B50D001600002785B001903C
:105558003200019803A9FFF7ADFF041E0AD0002D01
:1055680005D002000399280000F0F8FF2D193F1913
:10557800361BEDD101993A0001980A31FFF7A9FFCE
:10558800380005B0F0BD70470300702200201342B8
:105598000AD1012108000F321A405BB29040002B5B
:1055A80002DA1032914008007047F7B516001F0064
:1055B8000425009001913B00320001990098FDF705
:1055C8007DF9030004000B3304D1013DFFF754F8C3
:1055D800002DF0D12000FEBD0068002806D0043858
:1055E80003685B688B4201D04068F6E77047006843
:1055F800002808D0043803685B685B689B788B4296
:1056080001D04068F4E7704710B5006800280FD053
:10561800043803685B681A6A1B7FDB009B189A4290
:1056280001D14068F2E70832141F24788C42F6D181
:1056380010BD10B5FCF7CAF8002804D04068103037
:1056480043425841C0B210BD10B5020004004B1CC3
:10565800DBB2083A2534817081762370C376917065
:1056680010BD030010B5083B9C301A6859680068E3
:10567800904710BD002203694A331A7070470369C6
:1056880000201A004A32127882420CD01A0048329E
:105698001278824207D090331A68938891891069EA
:1056A8005B1A9BB2C01A7047002203694B331A7009
:1056B8007047036900201A0049321278824201D0EB
:1056C8004B331878704710B50400FFF7F2FF03005A
:1056D8000120002B04D12000FFF7D1FF431E984181
:1056E80010BD036906C370470369022908D004295D
:1056F8000BD001290ED194331B680020136070472A
:105708009B331B789B07DB0FF7E701219B331B7843
:105718000B40F2E786204042F1E7CA790369002A84
:1057280001D0012A03D10020A1331A7070478620C6
:105738004042FBE7036901201A00943212680A60AC
:105748001A0098321278002A03D0013A501E82417A
:10575800901C1A00487199321278501E032800D9FB
:1057680000220A711A009A3210780122062806D0FF
:105778009218072803D00022052800D003328A7126
:10578800A1331B780020CB71704710B503694029FD
:1057980036D00FD810292AD006D8012917D00829C1
:1057A80019D01320404210BD2029FAD19C3304247B
:1057B80019781FE080246400A14225D02419A14251
:1057C80026D08029EDD19C331024197812E0943327
:1057D8001A600020E7E701249C331978A143002AC6
:1057E80000D0214319700121FCF752FAF1E7022495
:1057F8009C331978A143002A00D021431970F3E79C
:105808009C3308241978F5E79C3320241978F1E7AC
:105818009C3340241978EDE7F7B5046905002700A3
:105828008C373868FFF78EFE26000190A036337853
:10583800002B16D03A689388918912695B1A9BB23B
:10584800D31A3F2B0DD923009E331B78002B06D08B
:105858006B6822001B6A0021187BFCF7B7FA00234B
:1058680033700198FEBD10B50122FFF7D5FF01384E
:10587800431E9841404210BD03691A0090321168D6
:105888008A8888890969121A92B2914203D11A004A
:105898000021483211701A008C321268D18852895E
:1058A800914202D1002249331A700120704710B585
:1058B800012801D1EFF30583FEF71EF810BD10B5DE
:1058C80001000068FFF7F3FF10BD10B5FCF716FBE9
:1058D800FCF732FB10BD10B500210120FFF7E7FFF0
:1058E80010BD10B5FCF766FCFEF792F8FFF7B4F8A8
:1058F800FCF7A6FCFEF7CCF8002802D162B6BFF38D
:105908006F8F7047BFF34F8F30BF62B6BFF36F8F93
:10591800704710B5FCF7D0FC10B5FCF7B9FC0020B7
:1059280010BDF8B506000F001500FCF7E3FC036A8C
:1059380076B204001B68002E23DA402D24D8002FED
:1059480019D180231B021D43210028310878030048
:105958005A1E9341012242400A70226A5B032B437C
:105968001360C046C046C04680220020216AD2008B
:1059780013430B60F8BD2A003900406A00F0EEFDC1
:10598800DFE700238360DFE70C204042F2E710B531
:105998000C00FCF7AFFC002802D04460002010BDCA
:1059A80016204042FBE743B20A0010B5002B06DB85
:1059B800402900D940220021FFF7B3FF10BD16206F
:1059C8004042FBE702790378002A01D15A0605D143
:1059D800702213405A1E934158427047012040429A
:1059E800FBE710B504000078FCF784FC002805D01C
:1059F8006388038023798370002010BD16204042FD
:105A0800FBE710B50400FCF775FC00280BD0640612
:105A180001D1002010BD026A1368DBB213600023B5
:105A2800C3708360F5E716204042F3E710B50C0019
:105A3800FCF760FC002805D0002C03D0C3780020B8
:105A4800237010BD16204042FBE770B50500FCF737
:105A580051FC041E0BD0C369002B06D02800FCF7AC
:105A68005FFCE2691368DBB21360002070BD16208A
:105A78004042FBE710B5FCF73DFC036A1868800557
:105A8800800D10BD70B505001600FCF76DFF041EF3
:105A980003D016246442200070BD002EFBD02800DD
:105AA800FCF7AAFF0028F6D0F3E710B5FCF722FCB4
:105AB800002801D0008810BD16204042FBE70300F3
:105AC80001200A1FD2B200B582420DD90E290AD888
